:020000040800F2
:1000000000800120852F0008A30D0008B10D000815
:10001000B70D0008BD0D0008C30D0008000000006A
:10002000000000000000000000000000C90D0008F2
:10003000D70D000800000000E50D0008F50D0008D0
:10004000CD2F0008CD2F0008CD2F0008CD2F0008A0
:10005000CD2F0008CD2F0008CD2F0008CD2F000890
:10006000CD2F0008CD2F0008CD2F0008CD2F000880
:10007000CD2F0008CD2F0008CD2F0008CD2F000870
:10008000CD2F0008CD2F0008CD2F0008CD2F000860
:10009000CD2F0008CD2F0008CD2F0008CD2F000850
:1000A000CD2F0008CD2F0008CD2F0008CD2F000840
:1000B000CD2F0008CD2F0008CD2F0008CD2F000830
:1000C000CD2F0008CD2F0008CD2F0008CD2F000820
:1000D000CD2F0008CD2F0008590E0008890E00080A
:1000E000090E0008CD2F0008CD2F0008CD2F0008E5
:1000F000CD2F0008CD2F0008CD2F0008CD2F0008F0
:10010000CD2F0008CD2F0008CD2F0008CD2F0008DF
:10011000CD2F0008CD2F0008650E0008CD2F000858
:10012000CD2F0008CD2F0008CD2F0008CD2F0008BF
:10013000CD2F0008CD2F0008CD2F0008CD2F0008AF
:1001400000000000000000000000000000000000AF
:10015000CD2F0008CD2F0008CD2F0008CD2F00088F
:10016000CD2F0008CD2F0008CD2F0008CD2F00087F
:10017000CD2F0008CD2F0008CD2F0008CD2F00086F
:04018000CD2F000877
:1001880010B5054C237833B9044B13B10448AFF3C9
:1001980000800123237010BD3400002000000000FF
:1001A800F031000808B5034B1BB103490348AFF30E
:1001B800008008BD0000000038000020F031000871
:1001C80081F0004102E000BF83F0004330B54FEA00
:1001D80041044FEA430594EA050F08BF90EA020F6D
:1001E8001FBF54EA000C55EA020C7FEA645C7FEA00
:1001F800655C00F0E2804FEA5454D4EB5555B8BF23
:100208006D420CDD2C4480EA020281EA030382EA93
:10021800000083EA010180EA020281EA0303362D25
:1002280088BF30BD11F0004F4FEA01314FF4801CF8
:100238004CEA113102D0404261EB410113F0004F0A
:100248004FEA03334CEA133302D0524263EB4303C1
:1002580094EA050F00F0A780A4F10104D5F1200E5F
:100268000DDB02FA0EFC22FA05F2801841F10001BA
:1002780003FA0EF2801843FA05F359410EE0A5F18E
:1002880020050EF1200E012A03FA0EFC28BF4CF0BF
:10029800020C43FA05F3C01851EBE37101F0004575
:1002A80007D54FF0000EDCF1000C7EEB00006EEB82
:1002B8000101B1F5801F1BD3B1F5001F0CD349080C
:1002C8005FEA30004FEA3C0C04F101044FEA445263
:1002D80012F5800F80F09A80BCF1004F08BF5FEAEA
:1002E800500C50F1000041EB045141EA050130BDCA
:1002F8005FEA4C0C404141EB0101013C28BFB1F5DC
:10030800801FE9D291F0000F04BF01460020B1FA26
:1003180081F308BF2033A3F10B03B3F120020CDAF9
:100328000C3208DD02F1140CC2F10C0201FA0CF0D7
:1003380021FA02F10CE002F11402D8BFC2F1200C3C
:1003480001FA02F120FA0CFCDCBF41EA0C019040F2
:10035800E41AA2BF01EB0451294330BD6FEA04043B
:100368001F3C1CDA0C340EDC04F11404C4F1200226
:1003780020FA04F001FA02F340EA030021FA04F338
:1003880045EA030130BDC4F10C04C4F1200220FA8F
:1003980002F001FA04F340EA0300294630BD21FACD
:1003A80004F0294630BD94F0000F83F4801306BF93
:1003B80081F480110134013D4EE77FEA645C18BF87
:1003C8007FEA655C29D094EA050F08BF90EA020F1E
:1003D80005D054EA000C04BF1946104630BD91EA16
:1003E800030F1EBF0021002030BD5FEA545C05D119
:1003F8004000494128BF41F0004130BD14F5800458
:100408003CBF01F5801130BD01F0004545F0FE41CB
:1004180041F470014FF0000030BD7FEA645C1ABF00
:10042800194610467FEA655C1CBF0B46024650EA37
:10043800013406BF52EA033591EA030F41F4002163
:1004480030BD00BF90F0000F04BF0021704730B5E9
:100458004FF4806404F132044FF000054FF00001BE
:1004680050E700BF90F0000F04BF0021704730B57F
:100478004FF4806404F1320410F0004548BF404254
:100488004FF000013EE700BF42004FEAE2014FEAA9
:1004980031014FEA02701FBF12F07F4393F07F4F84
:1004A80081F06051704732F07F4208BF704793F087
:1004B8007F4F04BF41F40021704730B54FF460749A
:1004C80001F0004521F000411CE700BF50EA01029D
:1004D80008BF704730B54FF000050AE050EA010246
:1004E80008BF704730B511F0004502D5404261EBB6
:1004F80041014FF4806404F132045FEA915C3FF4F7
:10050800D8AE4FF003025FEADC0C18BF03325FEA93
:10051800DC0C18BF033202EBDC02C2F1200300FA44
:1005280003FC20FA02F001FA03FE40EA0E0021FA69
:1005380002F11444BDE600BF70B54FF0FF0C4CF457
:10054800E06C1CEA11541DBF1CEA135594EA0C0F09
:1005580095EA0C0F00F0DEF82C4481EA030621EA44
:100568004C5123EA4C5350EA013518BF52EA03357F
:1005780041F4801143F4801338D0A0FB02CE4FF031
:100588000005E1FB02E506F00042E0FB03E54FF061
:100598000006E1FB03569CF0000F18BF4EF0010E59
:1005A800A4F1FF04B6F5007F64F5407404D25FEA55
:1005B8004E0E6D4146EB060642EAC62141EA555108
:1005C8004FEAC52040EA5E504FEACE2EB4F1FD0C4A
:1005D80088BFBCF5E06F1ED8BEF1004F08BF5FEAC8
:1005E800500E50F1000041EB045170BD06F000467A
:1005F80046EA010140EA020081EA0301B4EB5C0427
:10060800C2BFD4EB0C0541EA045170BD41F480111E
:100618004FF0000E013C00F3AB8014F1360FDEBF43
:10062800002001F0004170BDC4F10004203C35DA1F
:100638000C341BDC04F11404C4F1200500FA05F3A2
:1006480020FA04F001FA05F240EA020001F0004243
:1006580021F0004110EBD37021FA04F642EB0601B9
:100668005EEA430E08BF20EAD37070BDC4F10C04E3
:10067800C4F1200500FA04F320FA05F001FA04F2A7
:1006880040EA020001F0004110EBD37041F1000193
:100698005EEA430E08BF20EAD37070BDC4F120059E
:1006A80000FA05F24EEA020E20FA04F301FA05F206
:1006B80043EA020321FA04F001F0004121FA04F2AE
:1006C80020EA020000EBD3705EEA430E08BF20EA7E
:1006D800D37070BD94F0000F0FD101F000464000B8
:1006E80041EB010111F4801F08BF013CF7D041EA3A
:1006F800060195F0000F18BF704703F0004652003E
:1007080043EB030313F4801F08BF013DF7D043EA0E
:100718000603704794EA0C0F0CEA135518BF95EAC4
:100728000C0F0CD050EA410618BF52EA4306D1D14B
:1007380081EA030101F000414FF0000070BD50EA6A
:10074800410606BF1046194652EA430619D094EAF4
:100758000C0F02D150EA013613D195EA0C0F05D1DE
:1007680052EA03361CBF104619460AD181EA030132
:1007780001F0004141F0FE4141F470014FF00000EA
:1007880070BD41F0FE4141F4780170BD70B54FF085
:10079800FF0C4CF4E06C1CEA11541DBF1CEA135505
:1007A80094EA0C0F95EA0C0F00F0A7F8A4EB0504E7
:1007B80081EA030E52EA03354FEA013100F08880DE
:1007C8004FEA03334FF0805545EA131343EA1263A7
:1007D8004FEA022245EA111545EA10654FEA00265C
:1007E8000EF000419D4208BF964244F1FD0404F515
:1007F800407402D25B084FEA3202B61A65EB030571
:100808005B084FEA32024FF480104FF4002CB6EB2D
:10081800020E75EB030E22BFB61A754640EA0C00AD
:100828005B084FEA3202B6EB020E75EB030E22BFED
:10083800B61A754640EA5C005B084FEA3202B6EB2E
:10084800020E75EB030E22BFB61A754640EA9C00ED
:100858005B084FEA3202B6EB020E75EB030E22BFBD
:10086800B61A754640EADC0055EA060E18D04FEA7B
:10087800051545EA16754FEA06164FEAC30343EA1B
:1008880052734FEAC2025FEA1C1CC0D111F4801FE8
:100898000BD141EA00014FF000004FF0004CB6E7E1
:1008A80011F4801F04BF01430020B4F1FD0C88BF80
:1008B800BCF5E06F3FF6AFAEB5EB030C04BFB6EB8B
:1008C800020C5FEA500C50F1000041EB045170BD7E
:1008D8000EF0004E4EEA113114EB5C04C2BFD4EBAB
:1008E8000C0541EA045170BD41F480114FF0000E2F
:1008F800013C90E645EA060E8DE60CEA135594EAAB
:100908000C0F08BF95EA0C0F3FF43BAF94EA0C0FAD
:100918000AD150EA01347FF434AF95EA0C0F7FF422
:1009280025AF104619462CE795EA0C0F06D152EA76
:1009380003353FF4FDAE1046194622E750EA41065A
:1009480018BF52EA43067FF4C5AE50EA41047FF46B
:100958000DAF52EA43057FF4EBAE12E74FEA4102CE
:1009680012F5001215D211D56FF47873B3EB6252F9
:1009780012D94FEAC12343F0004343EA505311F020
:10098800004F23FA02F018BF404270474FF00000B2
:10099800704750EA013005D111F0004008BF6FF0F0
:1009A800004070474FF00000704700BF7BB972B934
:1009B8000029BEBF00204FF0004106E008BF002814
:1009C8001CBF6FF000414FF0FF3000F0A7B9ADF148
:1009D800080C6DE904CE002909DB002B1ADB00F0B6
:1009E80035F8DDF804E0DDE9022304B07047404241
:1009F80061EB4101002B1BDB00F028F8DDF804E077
:100A0800DDE9022304B0404261EB4101524263EB4D
:100A180043037047524263EB430300F017F8DDF8D5
:100A280004E0DDE9022304B0404261EB4101704774
:100A3800524263EB430300F009F8DDF804E0DDE916
:100A4800022304B0524263EB430370472DE9F04799
:100A5800089D04468E46002B4DD18A42944669D99A
:100A6800B2FA82F252B101FA02F3C2F1200120FA7D
:100A780001F10CFA02FC41EA030E94404FEA1C48CB
:100A8800210CBEFBF8F61FFA8CF708FB16E341EAC7
:100A9800034306FB07F199420AD91CEB030306F14D
:100AA800FF3080F01F81994240F21C81023E63446E
:100AB8005B1AA4B2B3FBF8F008FB103344EA034412
:100AC80000FB07F7A7420AD91CEB040400F1FF3327
:100AD80080F00A81A74240F207816444023840EA64
:100AE8000640E41B00261DB1D4400023C5E900439D
:100AF8003146BDE8F0878B4209D9002D00F0EF8020
:100B08000026C5E9000130463146BDE8F087B3FA52
:100B180083F6002E4AD18B4202D3824200F2F9803A
:100B2800841A61EB030301209E46002DE0D0C5E93D
:100B3800004EDDE702B9FFDEB2FA82F2002A40F089
:100B48009280A1EB0C014FEA1C471FFA8CFE01268C
:100B5800200CB1FBF7F307FB131140EA01410EFB30
:100B680003F0884208D91CEB010103F1FF3802D2D7
:100B7800884200F2CB804346091AA4B2B1FBF7F0D1
:100B880007FB101144EA01440EFB00FEA64508D9F4
:100B98001CEB040400F1FF3102D2A64500F2BB8031
:100BA8000846A4EB0E0440EA03409CE7C6F1200780
:100BB800B34022FA07FC4CEA030C20FA07F401FAC6
:100BC80006F31C43F9404FEA1C4900FA06F3B1FB4F
:100BD800F9F8200C1FFA8CFE09FB181140EA0141B4
:100BE80008FB0EF0884202FA06F20BD91CEB010151
:100BF80008F1FF3A80F08880884240F28580A8F1A9
:100C080002086144091AA4B2B1FBF9F009FB1011FA
:100C180044EA014100FB0EFE8E4508D91CEB010198
:100C280000F1FF346CD28E456AD90238614440EA3B
:100C38000840A0FB0294A1EB0E01A142C846A646BB
:100C480056D353D05DB1B3EB080261EB0E0101FA44
:100C580007F722FA06F3F1401F43C5E900710026A1
:100C68003146BDE8F087C2F12003D8400CFA02FCF7
:100C780021FA03F3914001434FEA1C471FFA8CFE07
:100C8800B3FBF7F007FB10360B0C43EA064300FBF7
:100C98000EF69E4204FA02F408D91CEB030300F195
:100CA800FF382FD29E422DD9023863449B1B89B24C
:100CB800B3FBF7F607FB163341EA034106FB0EF3D5
:100CC8008B4208D91CEB010106F1FF3816D28B4282
:100CD80014D9023E6144C91A46EA004638E72E464E
:100CE800284605E70646E3E61846F8E64B45A9D246
:100CF800B9EB020864EB0C0E0138A3E74646EAE7B5
:100D0800204694E74046D1E7D0467BE7023B614462
:100D180032E7304609E76444023842E7704700BFCB
:100D280080B500AF00F036FF0121012000F0F4FF8C
:100D380000BF00F08DFF0346002BFAD001223B21B3
:100D4800022001F07FF8002001F008FA01210220BA
:100D580000F0E2FF00BF192000F052FF0346012B0C
:100D6800F9D1002001F02CF8042001F055F80420F6
:100D780001F03CF8012001F0D5F9022001F0B0F8AB
:100D880000BF01F0D7F80346022BFAD1002001F08A
:100D9800C9F902F05DF900BF80BD80B400AF00BFA3
:100DA800BD465DF8047B704780B400AFFEE780B4B1
:100DB80000AFFEE780B400AFFEE780B400AFFEE707
:100DC80080B400AF00BFBD465DF8047B704780B4B7
:100DD80000AF00BFBD465DF8047B704780B400AF2C
:100DE80000BFBD465DF8047B7047000080B500AFCA
:100DF8002021024801F06FFE00BF80BD002C014099
:100E080080B500AF0F4B5B6903F40043002B08D09B
:100E18000D4B1B68184600F07FFE0A4B4FF400424A
:100E28005A61084B5B6903F40053002B08D0074B49
:100E38001B68184600F070FE024B4FF400525A61CE
:100E480000BF80BD00040140040000200000002015
:100E580080B500AF00F016FA00BF80BD80B500AFC6
:100E6800054A13696FF300031361044B1B681846A6
:100E780000F03AFD00BF80BD0010004000000020D7
:100E880080B400AF00BFBD465DF8047B704780B5F5
:100E980000AF00220021362001F0EDFB00BF80BD2D
:100EA80080B500AF40F2BD124FF6FF710C4801F05B
:100EB80063FC00210A4801F076FC0021084801F093
:100EC800BFFD0221064801F0D0FD0121044801F0D0
:100ED8001FFC01220121024801F0DCFD00BF80BD9A
:100EE8000010004080B500AF0121084800F0D5FE91
:100EF8000121074800F0D1FE0121064800F0CDFE8F
:100F08000121054800F0C9FE00BF80BD0B00180094
:100F180004001C00020018000300180080B500AF90
:100F28001021344801F060FA2021324801F06BFAB0
:100F3800314B0222DA71304B00221A712E4B1022EB
:100F48009A712D4B30221A602B4B04225A712A4970
:100F5800284801F093F9284B4FF470621A60264B29
:100F680008229A71244B00221A71234B04225A71C9
:100F7800214B0122DA7120491E4801F07FF91E4BEE
:100F88004FF460421A601C4B08229A711A4B0022D7
:100F98001A71194B04225A71174B0122DA7116493A
:100FA800164801F06BF9144B4FF480521A60124B3B
:100FB80000229A71104B00221A710F4B04225A71A9
:100FC8000D4B0122DA710C490C4801F057F90A4B14
:100FD8004FF420421A60084B00229A71064B0422F3
:100FE8005A71054B0122DA710349054801F046F9A7
:100FF80000BF80BD00080140FC000020000C01403B
:101008000010014080B500AF524B1B68524AA2FB4A
:1010180003239B0B9BB2013B9AB2504B1A804F4B58
:101028001B88013B1A4613469B0013444C4AA2FBFB
:101038000323DB089AB24B4B1A80484B1B88013BB1
:101048001A4640F2771302FB03F3474AA2FB032335
:101058009B099AB2454B1A80404B1B88013B1A46A4
:1010680013469B0013449A001344414AA2FB0323EE
:101078005B099AB23F4B1A80384B1B88013B1A46D2
:1010880013465B019B1A9B001344374AA2FB0323B8
:101098009B099AB2384B1A80304B1B88002219469C
:1010A800364801F069FB0021344801F07CFB3448E4
:1010B80001F043FB324B07221A70314B01225A715F
:1010C8002F4B0122DA702E4B01225A702C4B012231
:1010D8009A712B4B00221A71294B00229A70284AC8
:1010E8000021264801F074FB1E4B1B881A4600217C
:1010F800224801F06FFC224A0221204801F068FBD7
:101108001A4B1B881A4602211C4801F063FC1C4A32
:1011180004211A4801F05CFB164B1B881A4604216F
:10112800164801F057FC164A0621144801F050FBF6
:10113800114B1B881A460621104801F04BFC01216F
:101148000E4801F0DAFC01210C4801F0E1FA00BF79
:1011580080BD00BF0C0100205917B7D12001002025
:10116800CDCCCCCC22010020D34D6210240100202C
:101178001F85EB512601002028010020002C01408A
:101188000401002080B582B000AF0121204800F0A2
:1011980084FD01211F4800F080FD01211E4800F058
:1011A8007CFD3B46184601F005F90123FB7100233D
:1011B8003B710823BB7104233B6004237B713B46CE
:1011C8001946164801F05AF8032001F075FA002272
:1011D8000021262001F04FFA002300224FF4E131CC
:1011E8000F4801F09FFC01210D4801F020FD01216D
:1011F8000B4801F031FD0121094801F003FD0122EE
:101208000849074801F03DFD00BF0837BD4680BDCD
:1012180011001C000200180012001C000008014008
:101228000044004007000C0080B584B000AF0121E5
:101238004FF4C01000F031FD0D21022001F0F2F84A
:101248000F21022001F0EEF83B1D184600F09CFF2C
:1012580001237B7300233B714FF42043BB600023C1
:101268003B733B1D184600F0A5FF032001F024FA4C
:1012780000220021282001F0FEF900BF1037BD46EA
:1012880080BD000080B582B000AF8021114801F018
:101298003DFD0346002B18D00F4B1B881B0A9BB241
:1012A800FB71FB799BB219460A4801F01EFD0A4BF7
:1012B8001B88BB71BB799BB21946064801F015FD26
:1012C80000220649034801F0DCFC00BF0837BD4690
:1012D80080BD00BF004400400800002007000C004B
:1012E8002DE9B0438CB000AFB349B1F9261009B26B
:1012F800C8170A460346C7E90A23B04B3C461D46B1
:101308000FCD0FC42B6823600023FB75002387F8DB
:101318002730002387F82630A74B5B7D002B02D0AF
:101328004D2387F82630D7E90A23002B08DAD7E9B6
:101338000A230021D2F1000861EB0309C7E90A89F1
:10134800D7E90A23134332D197F92720D3B20133BF
:10135800DBB287F82730134630333B44302203F89A
:10136800302C2AE0D7E90A014FF00A024FF00003B7
:10137800FFF71CFB1346FB75D7E90A014FF00A0279
:101388004FF00003FFF712FB02460B46C7E90A239A
:10139800FB7D97F92710CAB20132D2B287F827200D
:1013A8003033DAB201F130033B4403F8302CD7E98B
:1013B8000A23012A73F10003D4DA97F92630002BA7
:1013C8000DD097F9273030333B442D2203F8302CC9
:1013D80097F92730DBB20133DBB287F8273097F96A
:1013E8002720D3B20133DBB287F8273013463033D6
:1013F8003B44202203F8302C0023FB75002387F898
:1014080025306D4BB3F920301846FFF72BF868A349
:10141800D3E90023FFF7BAF902460B464FF0000064
:101428006749FEF7D1FE02460B4610461946FFF7FC
:1014380095FA03467B84604B5B7D002B02D04D23DD
:1014480087F82530B7F92230002B34D197F92720B7
:10145800D3B20133DBB287F82730134630333B442D
:10146800302203F8302C2AE0B7F92220554B83FBB1
:1014780002139910D317C91A0B469B000B445B0043
:10148800D31A1BB2FB75B7F922304E4A82FB0312FE
:101498009210DB17D31A7B84FB7D97F92710CAB209
:1014A8000132D2B287F827203033DAB201F13003A3
:1014B8003B4403F8302CB7F92230002BD4DC97F9E1
:1014C8002530002B0DD097F9273030333B442D229F
:1014D80003F8302C97F92730DBB20133DBB287F8F9
:1014E800273097F9273030333B440D2203F8302C4E
:1014F80097F827300133DBB287F8273097F9273080
:1015080030333B440A2203F8302C0023FB611FE0F0
:101518003A46FB6913441B78BB7597F92720FB698A
:10152800D31A013B30333B4413F8301C3A46FB696D
:1015380013440A461A7097F92720FB69D31A013B0E
:1015480030333B44BA7D03F8302CFB690133FB612F
:1015580097F92730DA0F13445B105BB21A46FB6920
:101568009342D5DB0023BB6114E000BF164B1B6818
:10157800C3F3C013DBB2002BF8D03A46BB6913445F
:101588001B785BB29BB219460F4801F0AEFBBB69F2
:101598000133BB6197F92730BA699A42E5D900BF90
:1015A80000BF3037BD46BDE8B08300BFAFF3008051
:1015B8008FC2F5285C8F1F40700000200832000899
:1015C80000005940676666660044004080B584B0F4
:1015D80000AFFFF7A5FB01F0ADFB394800F0B8FC00
:1015E800FFF780FCFFF753FCFFF7CCFDFFF758FC33
:1015F800FFF794FCFFF706FD40F2EE23FB81FFF7AF
:1016080013FE00F019F92F4800F040F92E4800F0B9
:1016180053F92E4B1B8819462D4801F066FB2B4BBE
:101628001B8801339AB2294B1A800023BB6013E050
:10163800FB891946244800F0D3F8B7F90E20214B4E
:101648001A84FB89013BFB81FFF74AFE322001F037
:1016580049FCBB680133BB60BB6840F2ED22934292
:10166800E6DD00237B6013E0FB891946164800F08D
:10167800B7F8B7F90E20134B1A84FB890133FB81A5
:10168800FFF72EFE322001F02DFC7B6801337B60D2
:101698007B6840F2ED229342E6DD0A4B5B7D002B2E
:1016A80003D1084B01225A7502E0064B00225A75F5
:1016B80040F2EE237B80002001F0ACFBA9E700BFDD
:1016C8000C01002070000020AC0000200800002061
:1016D8000044004080B582B000AF03463960FB800B
:1016E8003B681B78012B32D1B7F90630002B16D096
:1016F800364B1B88013B1A464FF47A7302FB03F3FF
:10170800334AA2FB03239B099AB2324B1A80314B0E
:101718001B881A460421304801F05CF94DE02B4B38
:101728001B88013B1A4613469B0013445B001A466C
:10173800274BA3FB02239B099AB2264B1A80254B01
:101748001B881A460421244801F044F935E03B6817
:101758001B78022B31D1B7F90630002B16D01B4B62
:101768001B88013B1A464FF47A7302FB03F3184AAD
:10177800A2FB03239B099AB2184B1A80174B1B88AC
:101788001A460021144801F025F916E00F4B1B8872
:10179800013B1A4613469B0013445B001A460C4B48
:1017A800A3FB02239B099AB20C4B1A800B4B1B8894
:1017B8001A460021084801F00DF9FB88DAB23B68A7
:1017C8005A7500BF0837BD4680BD00BF2001002004
:1017D800D34D621026010020002C01402201002078
:1017E80080B584B000AF78600B467B800E4B9B7F42
:1017F8009BB27A889A4201D200237B807B880B4A6D
:101808001288013A02FB03F3094AA2FB03239B094E
:10181800FB817B685B78FA891946064801F0DAF89B
:1018280000BF1037BD4680BD5000002020010020B9
:10183800D34D6210002C014080B400AF124B00223F
:101848001A70114B4FF07C525A600F4B05221A72D6
:101858000D4B4FF08042DA600B4B14221A740A4B7E
:101868004FF000025A61084B00221A76064B962266
:101878005A83054B38229A83034B28229A7700BF54
:10188800BD465DF8047B70475000002080B483B0EB
:1018980000AF78607B6801221A707B6802225A7058
:1018A8007B6800225A757B680022DA6100BF0C371A
:1018B800BD465DF8047B704780B483B000AF7860A4
:1018C8007B6802221A707B6800225A707B680022AB
:1018D8005A757B680022DA6100BF0C37BD465DF897
:1018E800047B70470000000080B584B000AF7860CA
:1018F8007B689B69FB607B68B3F920301846FEF76C
:10190800B1FD7FA3D3E90023FEF740FF02460B4653
:101918004FF000007E49FEF757FC02460B46104682
:101928001946FFF71BF803467B817B68DB69FA6879
:10193800D31A002BB8BF5B421AB27B68DA847B6883
:10194800FA68DA617A897B68B3F926309BB2D31AD0
:101958009BB23B817B68B3F922309AB23B8913442E
:101968009BB21AB27B685A847B68B3F92220694B10
:10197800B3F91A309A4205DD664BB3F91A207B6831
:101988005A8412E07B68B3F922301A46614BB3F9E6
:101998001A305B429A4208DA5E4BB3F91A309BB2AE
:1019A8005B429BB21AB27B685A84B7F90A30002BA3
:1019B80026D17B68B3F92630002B21D17B68B3F997
:1019C8002230002B1CD07B68B3F92230002B09DDB4
:1019D8007B68B3F922309BB2013B9BB21AB27B6899
:1019E8005A840DE07B68B3F92230002B08DA7B6853
:1019F800B3F922309BB201339BB21AB27B685A8486
:101A0800444B93ED017AB7F9083007EE903AF8EEB7
:101A1800E77A67EE277A7B68C3ED0A7A3D4B93ED48
:101A2800037A7B68B3F9223007EE903AF8EEE77A4A
:101A380067EE277A7B68C3ED0B7A364B93ED057A10
:101A4800B7F908307A68B2F924209B1A07EE903A61
:101A5800F8EEE77A67EE277A7B68C3ED0C7A7B6845
:101A68003A899A847B6893ED0A7A7B68D3ED0B7A7E
:101A780037EE277A7B68D3ED0C7A77EE277AFDEE7E
:101A8800E77A17EE903A1AB27B689A867B68B3F9C0
:101A98003430642B02DD7B6864229A867B68B3F954
:101AA8003430002B06DA7B685B7D002B02D07B6824
:101AB80000229A867B68B3F93430002BB8BF5B42AA
:101AC8009BB21846FEF7CEFC0DA3D3E90023FEF720
:101AD80033FD02460B460CA1D1E90001FEF774FB69
:101AE80002460B4610461946FEF738FF03461BB25E
:101AF8001946786800F029F800BF1037BD4680BD48
:101B08008FC2F5285C8F1F400000000000A88840A5
:101B1800000059405000002080B483B000AF7860C6
:101B28007B685B7D002B05D17B689B695A1C7B68B1
:101B38009A6104E07B689B695A1E7B689A6100BFC2
:101B48000C37BD465DF8047B704780B584B000AFA4
:101B580078600B467B80B7F90230002BB8BF5B4238
:101B6800FB81FB8940F2EE22934202D940F2EE2338
:101B7800FB817B685B7D1BB279681846FFF7AAFD7D
:101B8800FB8919467868FFF72BFE00BF1037BD4662
:101B980080BD000080B400AF184A136843F0010309
:101BA800136000BF154B1B68C3F34003DBB2012B66
:101BB800F8D1124A53686FF30103536000BF0F4B0B
:101BC8005B68C3F38103DBB2002BF8D10B4B1B68B6
:101BD8000A4A23F0867323F480331360074B0022EC
:101BE8005A60064B00221A63044B4FF41F029A6096
:101BF80000BFBD465DF8047B704700BF001002407F
:101C080080B485B000AF78600023FB737B681B0C41
:101C180003F1804303F504331A687B6803F01F035C
:101C2800012101FA03F31A407B6803F01F03012125
:101C380001FA03F39A4202D00023FB7301E0012367
:101C4800FB73FB7B18461437BD465DF8047B704771
:101C580080B582B000AF00237B600023FB7002E0F8
:101C68007B6801337B601120FFF7CAFF0346012B15
:101C780003D07B68B3F5405FF2D31120FFF7C0FFB4
:101C88000346012B02D00023FB7001E00123FB7007
:101C9800FB7818460837BD4680BD80B483B000AFD6
:101CA80078600B46FB70FB78012B16D17B681B0C08
:101CB80003F1804303F5043319687B6803F01F03BD
:101CC80001229A407B681B0C03F1804303F504331F
:101CD800184641EA0203036017E07B681B0C03F116
:101CE800804303F5043319687B6803F01F0301225E
:101CF80002FA03F3DA437B681B0C03F1804303F514
:101D08000433184601EA0203036000BF0C37BD46DE
:101D18005DF8047B7047000080B483B000AF0346D1
:101D28000A46FB711346BB71FB79042B3ED801A20E
:101D380052F823F0511D0008651D0008791D0008A0
:101D48008D1D0008A11D00081C4ABB7903F0010382
:101D5800D9B2136861F30003136028E0174ABB790E
:101D680003F00103D9B2136861F3104313601EE056
:101D7800124ABB7903F00103D9B2136861F31863FF
:101D8800136014E00D4ABB7903F00103D9B2136A5A
:101D980061F3000313620AE0084ABB7903F0010308
:101DA800D9B2536A61F30003536200E000BF00BF79
:101DB8000C37BD465DF8047B704700BF0010024039
:101DC80080B483B000AF0346FB71074AFB7903F088
:101DD8000F03D9B2536861F30713536000BF0C3780
:101DE800BD465DF8047B70470010024080B483B0A4
:101DF80000AF0346FB71074AFB7903F00703D9B22A
:101E0800536861F30A23536000BF0C37BD465DF881
:101E1800047B70470010024080B483B000AF0346D3
:101E2800FB71074AFB7903F00703D9B2536861F3E2
:101E3800CD23536000BF0C37BD465DF8047B704767
:101E48000010024080B483B000AF0346FB710B461C
:101E5800BB7113467B71FB79002B0AD11F4A53686B
:101E68006FF3104353601D4A136B43F00073136301
:101E780012E01A4A536843F480335360FB79012B0C
:101E880005D1164A53686FF35143536004E0134A6F
:101E9800536843F400335360104ABB7903F00F03CF
:101EA800D9B2536861F395435360BB791B110B4A50
:101EB80003F00303D9B2536861F35E735360074AB2
:101EC8007B7903F00103D9B2536861F3DF73536080
:101ED80000BF0C37BD465DF8047B70470010024018
:101EE80080B483B000AF0346FB71114AFB7903F05D
:101EF8000303D9B2536861F30103536000BF00BF05
:101F080000BF00BF00BF00BF00BF00BF00BF00BFD1
:101F180000BF00BF00BF00BF00BF00BF00BF00BFC1
:101F280000BF00BF00BF0C37BD465DF8047B70479B
:101F38000010024080B400AF044B5B68C3F3810318
:101F4800DBB21846BD465DF8047B704700100240BE
:101F580080B58AB000AF786000233B6200237B62C3
:101F68000023FB610023BB6100237B6100233B61ED
:101F7800FFF7E0FF0346FB73FB7B022B20D0022B0D
:101F880069DC002B02D0012B16D064E05D4B5B6D41
:101F9800C3F34023DBB2002B0AD05A4B1B6BC3F3AD
:101FA8004063DBB2002B03D07B68574A1A6056E0C7
:101FB8007B68564A1A6052E07B68544A1A604EE0C1
:101FC800504B5B68C3F30043DBB2BB614D4B5B68AE
:101FD800C3F38343DBB27B624A4B5B68C3F3417351
:101FE800DBB2FB61FB69002B02D17B6A0F2B06D1A8
:101FF800FB691A017B6A134401337B6202E07B6A46
:1020080002337B62BB69002B06D17B6A404A03FB23
:1020180002F27B681A6022E03A4B5B68C3F34043E4
:10202800DBB2002B10D0374B5B6DC3F30133DBB24F
:102038003B623B6A0233354AB2FBF3F37A6A03FB2D
:1020480002F27B681A600AE07B6A304A03FB02F2FC
:102058007B681A6003E07B682C4A1A6000BF294B32
:102068005B68C3F30313DBB27B612A4A7B691344C1
:102078001B783B617B681A683B69DA407B685A6069
:10208800204B5B68C3F30223DBB27B61224A7B6986
:1020980013441B783B617B685A683B69DA407B686C
:1020A800DA60184B5B68C3F3C223DBB27B611B4A5F
:1020B8007B6913441B783B617B685A683B69DA404B
:1020C8007B689A600F4B5B68C3F30073DBB27B617C
:1020D8007B699B000B4A5268C2F38132D2B2134328
:1020E8007B610F4A7B6913441B783B617B689A6864
:1020F8003B69B2FBF3F27B681A6100BF2837BD4623
:1021080080BD00BF00100240006CDC0200127A00A3
:1021180000093D001C3200082C3200083432000847
:102128003C32000880B483B000AF0346FB71FB79F2
:10213800012B05D1084A536D43F03003536504E081
:10214800054A536D6FF30513536500BF0C37BD4641
:102158005DF8047B704700BF0010024080B483B074
:1021680000AF0346FB71074AFB7903F00303D9B2BA
:10217800536D61F30D33536500BF0C37BD465DF8F1
:10218800047B70470010024080B483B000AF7860D1
:102198007B6800225A727B6800225A607B680122A1
:1021A8001A727B6801221A7000BF0C37BD465DF8B1
:1021B800047B704780B485B000AF78600023FB6073
:1021C8007B685B68FB602C4B1A68FB68DB432A4919
:1021D80013400B60284B5A68FB68DB4326491340C1
:1021E8004B607B685B7A002B40D07B681B78002BA8
:1021F80006D1214B1A682049FB6813430B6005E0A0
:102208001D4B5A681C49FB6813434B601A4B9A686C
:10221800FB68DB43184913408B60174BDA68FB688F
:10222800DB4315491340CB607B681B7A002B06D132
:10223800114B9A681049FB6813438B6016E07B6862
:102248001B7A012B06D10C4BDA680B49FB68134348
:10225800CB600BE0084B9A680749FB6813438B6017
:10226800054BDA680449FB681343CB6000BF143799
:10227800BD465DF8047B70470004014080B485B01A
:1022880000AF786039603B681B683B813B689B798D
:10229800032B02D100237B8130E03B689B79002B24
:1022A80015D13B685B799BB203F00F037B813B68D8
:1022B8005B79182B03D13A897B681A611EE03B6869
:1022C8005B79282B1AD13A897B685A6116E03B68FA
:1022D8009B791BB203F008031AB23B681B791BB247
:1022E80003F004031BB213431AB23B68DB791BB239
:1022F80003F003031BB213431BB27B813B89DBB2A0
:10230800002B25D00023FB601FE03A89FB6842FAC6
:1023180003F303F00103002B14D07B681B68FA68F1
:1023280092000F2101FA02F2D2431A407B681A6028
:102338007B681B687989FA68920001FA02F21A43ED
:102348007B681A60FB680133FB60FB68072BDCD9EC
:102358003B89FF2B28D93B891B0A3B810023FB6063
:102368001FE03A89FB6842FA03F303F00103002BEC
:1023780014D07B685B68FA6892000F2101FA02F2B8
:10238800D2431A407B685A607B685B687989FA682F
:10239800920001FA02F21A437B685A60FB68013323
:1023A800FB60FB68072BDCD900BF1437BD465DF81E
:1023B800047B704780B483B000AF78607B684FF6C9
:1023C800FF721A607B6800229A717B6800221A717A
:1023D8007B6804225A717B680122DA7100BF0C37CE
:1023E800BD465DF8047B704780B483B000AF786069
:1023F8000B467B807A887B681A6100BF0C37BD4624
:102408005DF8047B704780B483B000AF78600B46FA
:102418007B807A887B685A6100BF0C37BD465DF8BF
:10242800047B704780B485B000AF03460A46FB7151
:102438001346BB710023FB60BB7903F003039B00C9
:102448000F2202FA03F3FB60BB799B08DBB2032B74
:102458005AD801A252F823F07124000899240008E0
:10246800C1240008E92400082B4B9A68FB68DB4369
:10247800294913408B60284B9A68F979BB7903F096
:1024880003039B0001FA03F3234913438B603CE0E9
:10249800214BDA68FB68DB431F491340CB601E4BB6
:1024A800DA68F979BB7903F003039B0001FA03F3B7
:1024B80019491343CB6028E0174B1A69FB68DB43C3
:1024C800154913400B61144B1A69F979BB7903F06C
:1024D80003039B0001FA03F30F4913430B6114E054
:1024E8000D4B5A69FB68DB430B4913404B610A4BA0
:1024F8005A69F979BB7903F003039B0001FA03F3E6
:10250800054913434B6100E000BF00BF1437BD46C7
:102518005DF8047B704700BF0000014080B485B0BF
:1025280000AF78607B6803F00703FB600C4BDB6847
:10253800BB60BA684FF6FF031340BB60FB681A0222
:10254800BB68134343F0BF6343F40033BB60044AE2
:10255800BB68D36000BF1437BD465DF8047B704785
:1025680000ED00E080B400AF044BDB681B0A03F009
:1025780007031846BD465DF8047B704700ED00E090
:1025880080B483B000AF0346FB7197F90730002B86
:102598000BDBFB7903F01F02074997F907305B094A
:1025A800012000FA02F241F8232000BF0C37BD4693
:1025B8005DF8047B704700BF00E100E080B483B0A1
:1025C80000AF03463960FB7197F90730002B0ADB2F
:1025D8003B68DAB20C4997F907301201D2B20B44C2
:1025E80083F800230AE03B68DAB20849FB7903F074
:1025F8000F03043B1201D2B20B441A7600BF0C370A
:10260800BD465DF8047B704700E100E000ED00E0A6
:1026180080B489B000AFF860B9607A60FB6803F0F5
:102628000703FB61FB69C3F10703042B28BF0423DD
:10263800BB61FB690433062B02D9FB69033B00E04D
:1026480000237B614FF0FF32BB6902FA03F3DA43E0
:10265800BB681A407B699A404FF0FF317B6901FAE9
:1026680003F3D9437B680B40134318462437BD4610
:102678005DF8047B704780B586B000AF0346B9604B
:102688007A60FB7300237B61FFF76CFF03467A686F
:10269800B9681846FFF7BCFF786197F90F30796978
:1026A8001846FFF78BFF97F90F301846FFF768FFBA
:1026B80000BF1837BD4680BD80B582B000AF034665
:1026C800FB71FB791846FFF729FF00BF0837BD46A5
:1026D80080BD000080B483B000AF0346FB71FB7976
:1026E800042B06D1094B1B68084A43F00403136006
:1026F80005E0064B1B68054A23F00403136000BF7E
:102708000C37BD465DF8047B704700BF10E000E061
:1027180080B483B000AF78600B46FB70FB7803F0A1
:102728000103D9B27A68136861F30003136000BF2C
:102738000C37BD465DF8047B704780B483B000AFAA
:1027480078607B6800221A707B6800225A707B6868
:1027580000229A707B680022DA707B6800221A7166
:102768007B6800225A717B6800229A7100BF0C377F
:10277800BD465DF8047B704780B485B000AFF86053
:10278800B9607A60FB68BA68DA62FB687A689A624C
:10279800FA68536943F00103536100BF1437BD461B
:1027A8005DF8047B704780B483B000AF78600B4657
:1027B800FB70FB7803F00703D9B27A68136861F3FA
:1027C8000613136000BF0C37BD465DF8047B7047E5
:1027D80080B489B000AFF8600B467A60FB720023C2
:1027E800FB830023BB8300237B83FB7A9BB20833E4
:1027F8003B83FB7A9BB20933FB827B685B781A4682
:102808003B8B02FA03F3FB837B689B781A46FB8AAF
:1028180002FA03F3BB83FB685B68FA8A012101FAB9
:1028280002F2D2431A40FB685A60FB685A68BB8BB5
:102838001A43FB685A60FB685B683A8B012101FA0E
:1028480002F2D2431A40FB685A60FB685A68FB8B55
:102858001A43FB685A60FB7A7B837B8B062B3DD837
:1028680001A252F823F000BF8D280008E5280008CF
:10287800A3280008E5280008B9280008E52800086A
:10288800CF2800087B681B7803F00703D9B2FA68E1
:10289800936961F30613936121E07B681B7803F069
:1028A8000703D9B2FA68936961F30E33936116E0AE
:1028B8007B681B7803F00703D9B2FA68D36961F320
:1028C8000613D3610BE07B681B7803F00703D9B2CA
:1028D800FA68D36961F30E33D36100E000BFFB7A75
:1028E8009BB25B009BB201333B83FB7A9BB25B00DC
:1028F8009BB20333FB827B68DB781A463B8B02FA78
:1029080003F3FB837B681B791A46FB8A02FA03F3FD
:10291800BB83FB681B6AFA8A012101FA02F2D243DF
:102928001A40FB681A62FB681A6ABB8B1A43FB6879
:102938001A62FB681B6A3A8B012101FA02F2D24340
:102948001A40FB681A62FB681A6AFB8B1A43FB6819
:102958001A62FB7A9BB25B003B83FB7A01339BB222
:102968005B00FB827B685B791A46FB7A5B0002FAA4
:1029780003F3FB837B689B791A46FB7A01335B0080
:1029880002FA03F3BB83FB681B6AFA8A012101FA86
:1029980002F2D2431A40FB681A62FB681A6ABB8BC0
:1029A8001A43FB681A62FB681B6A3A8B012101FA19
:1029B80002F2D2431A40FB681A62FB681A6AFB8B60
:1029C8001A43FB681A6200BF2437BD465DF8047BD2
:1029D800704700BF80B487B000AFF8600B467A60DC
:1029E800FB72FB7AFB82FB8A062B21D801A252F8E4
:1029F80023F000BF192A0008392A0008212A0008F4
:102A0800392A0008292A0008392A0008312A00082A
:102A1800FB687A685A630CE0FB687A689A6308E096
:102A2800FB687A68DA6304E0FB687A681A6400E095
:102A380000BF00BF1C37BD465DF8047B704700BF70
:102A480080B483B000AF78600B46FB70FB7803F06E
:102A58000103D9B27A68136861F3C713136000BF22
:102A68000C37BD465DF8047B704780B483B000AF77
:102A780078600B46FB70FB7803F00703D9B27A68DD
:102A8800536861F30613536000BF0C37BD465DF809
:102A9800047B704780B485B000AFF860B960134616
:102AA800FB71FB79012B06D1FB68DA68BB681A4316
:102AB800FB68DA6009E0FB79002B06D1FB68DA686D
:102AC800BB68DB431A40FB68DA6000BF1437BD46B9
:102AD8005DF8047B704780B483B000AF78600B4624
:102AE800FB707B685A69FB781A437B685A6100BFA0
:102AF8000C37BD465DF8047B704780B483B000AFE7
:102B080078600B46FB70FB7803F00103D9B27A6852
:102B1800536C61F3CF33536400BF0C37BD465DF887
:102B2800047B704780B58CB000AFF860B96011467F
:102B38001A460B46FB711346BB7107F1140318467E
:102B4800FFF706FAFB682A4A93420BD0FB68294A2A
:102B5800934207D0FB68284A934203D0FB68274A70
:102B6800934202D1FB69FB6201E03B6AFB62FA6AAD
:102B780013469B0013445B001A46BB68B2FBF3F391
:102B8800BB62B96A1E4BA3FB0123DA0813469B00FC
:102B980013445B00CA1A042A06D8BB6A184AA2FB67
:102BA8000323DB08BB6206E0BB6A154AA2FB0323CA
:102BB800DB080133BB62BB6A99B2FA68936861F3B8
:102BC8000F039360FB7903F00103D9B2FA68D36865
:102BD80061F30C33D360BB7903F00303D9B2FA680D
:102BE800136961F30D33136100BF3037BD4680BDF3
:102BF8000038014000600140006401400068014065
:102C0800CDCCCCCC80B483B000AF78600B46FB70E1
:102C1800FB7803F00103D9B27A68D36861F34D33C6
:102C2800D36000BF0C37BD465DF8047B704780B4A5
:102C380083B000AF78600B46FB70FB7803F00103AC
:102C4800D9B27A68D36861F3C303D36000BF0C3785
:102C5800BD465DF8047B704780B483B000AF7860F0
:102C68000B46FB70FB7803F00103D9B27A68D3688E
:102C780061F38203D36000BF0C37BD465DF8047B67
:102C8800704780B485B000AFF860B9601346FB7137
:102C9800FB79012B11D1BB681A0CFB6813441A6825
:102CA800BB6803F01F03012101FA03F3B968080C9C
:102CB800F968014413430B6011E0BB681A0CFB6808
:102CC80013441A68BB6803F01F03012101FA03F3D8
:102CD800DB43B968080CF968014413400B6000BF76
:102CE8001437BD465DF8047B704780B483B000AFED
:102CF80078600B467B807B88C3F308027B685A6048
:102D080000BF0C37BD465DF8047B704780B483B0C4
:102D180000AF786039607B681A683B681340002B05
:102D280001D0012300E0002318460C37BD465DF8AA
:102D3800047B704780B500AF00F0B4F8002000F0C5
:102D480035F8012000F032F8022000F02FF80020BA
:102D580000F084F8012000F081F8022000F07EF8ED
:102D680000F002F800BF80BD80B582B000AF01213D
:102D78000C48FEF792FF3B461846FFF71BFB012362
:102D8800FB7100233B710023BB7101233B602823A7
:102D98007B713B4619460448FFF770FA00BF0837B5
:102DA800BD4680BD020018000008014080B584B00F
:102DB80000AF0346FB71FB79134A52F82330012117
:102DC8001846FEF76AFF07F108031846FFF7F2FAFC
:102DD8000123FB7300233B731023BB73FB790B4A5E
:102DE80032F81330BB6004237B73FB79084A52F82E
:102DF800233007F1080211461846FFF73FFA00BFD3
:102E08001037BD4680BD00BF2000002018000020FC
:102E18000C00002080B483B000AF0346FB71FB793F
:102E2800022B10D8FB790B4A32F81330002B0BD049
:102E3800FB79084A32F81310FB79074A52F8233015
:102E48000A465A6100E000BF0C37BD465DF8047BB6
:102E5800704700BF180000200C00002080B483B029
:102E680000AF0346FB71FB79022B10D8FB790B4AA4
:102E780032F81330002B0BD0FB79084A32F81310C4
:102E8800FB79074A52F823300A461A6100E000BF6E
:102E98000C37BD465DF8047B704700BF1800002062
:102EA8000C00002080B500AF0420FFF713FC094B8D
:102EB8001B68094AA2FB03239B0C084A1360074BB3
:102EC8001B684FF47A7202FB03F3054A136000BFD4
:102ED80080BD00BF3000002083DE1B432C01002092
:102EE8003001002080B485B000AF0346FB8000238A
:102EF800FB6035E0FB88322B0AD91E4B1B681E4A43
:102F0800322101FB03F35360FB88323BFB8008E06E
:102F1800FB88184A1268184902FB03F34B60002328
:102F2800FB80154B00229A60134B1B68124A43F032
:102F380001031360104B1B68FB60FB6803F001037F
:102F4800002B04D0FB6803F48033002BF2D00A4B2B
:102F58001B68094A23F001031360074B00229A609B
:102F6800FB88002BC6D100BF00BF1437BD465DF8F3
:102F7800047B70473001002010E000E0002103E0EE
:102F88000B4B5B58435004310A480B4B42189A428A
:102F9800F6D30A4A02E0002342F8043B084B9A425F
:102FA800F9D300F011F800F0FBF8FEF70FFB7047BB
:102FB80064320008000000203400002034000020A3
:102FC80034010020FEE7000080B400AF1E4BD3F8A8
:102FD80088301D4A43F47003C2F888301B4A1368CE
:102FE80043F00103136000BF184B1B68C3F3400391
:102FF800DBB2012BF8D1154A53686FF30103536014
:1030080000BF124B5B68C3F38103DBB2002BF8D11E
:103018000E4B1B680D4A23F0867323F4803313602C
:103028000A4B00225A60094B00221A63074B4FF4DF
:103038001F029A60044B4FF000629A6000BFBD46C1
:103048005DF8047B704700BF00ED00E0001002400F
:1030580080B588B000AF0023BB610023FB6100236B
:103068007B6100233B610023FB600023BB60FEF70C
:1030780061FF0346FB71FB79022B20D0022B69DC30
:10308800002B02D0012B16D064E03F4B5B6DC3F3DD
:103098004023DBB2002B0AD03B4B1B6BC3F34063CE
:1030A800DBB2002B03D0394B394A1A6056E0374B54
:1030B800384A1A6052E0354B364A1A604EE0324BB5
:1030C8005B68C3F30043DBB23B612F4B5B68C3F320
:1030D8008343DBB2FB612C4B5B68C3F34173DBB208
:1030E8007B617B69002B02D1FB690F2B06D17B69C1
:1030F8001A01FB6913440133FB6102E0FB690233E7
:10310800FB613B69002B06D1FB69234A02FB03F3F1
:103118001E4A136022E01C4B5B68C3F34043DBB2DA
:10312800002B10D0184B5B6DC3F30133DBB2BB61CE
:10313800BB690233174AB2FBF3F3FA6902FB03F3E4
:10314800124A13600AE0FB69124A02FB03F30F4AB2
:10315800136003E00D4B0F4A1A6000BF0A4B5B680F
:10316800C3F30313DBB2FB600C4AFB6813441B7800
:10317800BB60064B1A68BB6822FA03F3034A136064
:1031880000BF2037BD4680BD00100240300000203F
:10319800006CDC0200127A0000093D00443200088D
:1031A80070B50D4D0D4C641BA4100026A64209D124
:1031B8000B4D0C4C00F018F8641BA4100026A64216
:1031C80005D170BD55F8043B98470136EEE755F830
:1031D800043B98470136F2E75C3200085C3200088D
:1031E8005C32000860320008F8B500BFF8BC08BCC3
:1031F8009E467047F8B500BFF8BC08BC9E467047AD
:1032080030303030303030303030303030303030B6
:1032180030303030000000000000000001020304DC
:10322800060708090000000001020304000000006E
:103238000102030402040608020C08100000000042
:0C32480000000000010203040607080952
:0832540000D8FF7F010000001B
:04325C00AD010008B8
:0432600089010008D8
:1032640070000020AC0000200100010000140140A7
:1032740000140140001401400020004000800000C0
:1032840005001800050018000500180001000000E2
:0432940000127A00AA
:0400000508002F853B
:00000001FF
