:020000040800F2
:1000000000800120D11E0008B3050008C1050008CA
:10001000C7050008CD050008D30500080000000052
:10002000000000000000000000000000D9050008EA
:10003000E705000800000000F505000805060008B7
:10004000191F0008191F0008191F0008191F0008B0
:10005000191F0008191F0008191F0008191F0008A0
:10006000191F0008191F0008191F0008191F000890
:10007000191F0008191F0008191F0008191F000880
:10008000191F0008191F0008191F0008191F000870
:10009000191F0008191F0008191F0008191F000860
:1000A000191F0008191F0008191F0008191F000850
:1000B000191F0008191F0008191F0008191F000840
:1000C000191F0008191F0008191F0008191F000830
:1000D000191F0008191F00085906000865060008C6
:1000E00019060008191F0008191F0008191F000829
:1000F000191F0008191F0008191F0008191F000800
:10010000191F0008191F0008191F0008191F0008EF
:10011000191F0008191F0008191F0008191F0008DF
:10012000191F0008191F0008191F0008191F0008CF
:10013000191F0008191F0008191F0008191F0008BF
:1001400000000000000000000000000000000000AF
:10015000191F0008191F0008191F0008191F00089F
:10016000191F0008191F0008191F0008191F00088F
:10017000191F0008191F0008191F0008191F00087F
:04018000191F00083B
:1001840010B5054C237833B9044B13B10448AFF3CD
:1001940000800123237010BD2C000020000000000B
:1001A4008423000808B5034B1BB103490348AFF38C
:1001B400008008BD000000003000002084230008F7
:1001C4007BB972B90029BEBF00204FF0004106E0A0
:1001D40008BF00281CBF6FF000414FF0FF3000F053
:1001E400A7B9ADF1080C6DE904CE002909DB002B99
:1001F4001ADB00F035F8DDF804E0DDE9022304B091
:100204007047404261EB4101002B1BDB00F028F8F2
:10021400DDF804E0DDE9022304B0404261EB410172
:10022400524263EB43037047524263EB430300F0D3
:1002340017F8DDF804E0DDE9022304B0404261EB85
:1002440041017047524263EB430300F009F8DDF8C3
:1002540004E0DDE9022304B0524263EB4303704738
:100264002DE9F047089D04468E46002B4DD18A4265
:10027400944669D9B2FA82F252B101FA02F3C2F198
:10028400200120FA01F10CFA02FC41EA030E944029
:100294004FEA1C48210CBEFBF8F61FFA8CF708FB4A
:1002A40016E341EA034306FB07F199420AD91CEB22
:1002B400030306F1FF3080F01F81994240F21C8154
:1002C400023E63445B1AA4B2B3FBF8F008FB10339C
:1002D40044EA034400FB07F7A7420AD91CEB0404D1
:1002E40000F1FF3380F00A81A74240F207816444A1
:1002F400023840EA0640E41B00261DB1D440002326
:10030400C5E900433146BDE8F0878B4209D9002D89
:1003140000F0EF800026C5E9000130463146BDE813
:10032400F087B3FA83F6002E4AD18B4202D382427D
:1003340000F2F980841A61EB030301209E46002D2C
:10034400E0D0C5E9004EDDE702B9FFDEB2FA82F281
:10035400002A40F09280A1EB0C014FEA1C471FFADF
:100364008CFE0126200CB1FBF7F307FB131140EAC6
:1003740001410EFB03F0884208D91CEB010103F193
:10038400FF3802D2884200F2CB804346091AA4B255
:10039400B1FBF7F007FB101144EA01440EFB00FE29
:1003A400A64508D91CEB040400F1FF3102D2A6458E
:1003B40000F2BB800846A4EB0E0440EA03409CE72D
:1003C400C6F12007B34022FA07FC4CEA030C20FADA
:1003D40007F401FA06F31C43F9404FEA1C4900FAFA
:1003E40006F3B1FBF9F8200C1FFA8CFE09FB181177
:1003F40040EA014108FB0EF0884202FA06F20BD9EA
:100404001CEB010108F1FF3A80F08880884240F239
:100414008580A8F102086144091AA4B2B1FBF9F07D
:1004240009FB101144EA014100FB0EFE8E4508D978
:100434001CEB010100F1FF346CD28E456AD90238FD
:10044400614440EA0840A0FB0294A1EB0E01A142E2
:10045400C846A64656D353D05DB1B3EB080261EB50
:100464000E0101FA07F722FA06F3F1401F43C5E92A
:10047400007100263146BDE8F087C2F12003D84060
:100484000CFA02FC21FA03F3914001434FEA1C47A2
:100494001FFA8CFEB3FBF7F007FB10360B0C43EA94
:1004A400064300FB0EF69E4204FA02F408D91CEB44
:1004B400030300F1FF382FD29E422DD90238634442
:1004C4009B1B89B2B3FBF7F607FB163341EA0341E2
:1004D40006FB0EF38B4208D91CEB010106F1FF3831
:1004E40016D28B4214D9023E6144C91A46EA004628
:1004F40038E72E46284605E70646E3E61846F8E6BA
:100504004B45A9D2B9EB020864EB0C0E0138A3E702
:100514004646EAE7204694E74046D1E7D0467BE7E3
:10052400023B614432E7304609E76444023842E75B
:10053400704700BF80B500AF00F02AFC0121012004
:1005440000F0E8FC00BF00F081FC0346002BFAD069
:1005540001223B21022000F073FD002000F0FCFE8C
:100564000121022000F0D6FC00BF192000F046FC57
:100574000346012BF9D1002000F020FD042000F0F7
:1005840049FD042000F030FD012000F0C9FE0220E6
:1005940000F0A4FD00BF00F0CBFD0346022BFAD10E
:1005A400002000F0BDFE01F0FBFC00BF80BD80B464
:1005B40000AF00BFBD465DF8047B704780B400AF58
:1005C400FEE780B400AFFEE780B400AFFEE780B47E
:1005D40000AFFEE780B400AF00BFBD465DF8047B0A
:1005E400704780B400AF00BFBD465DF8047B704720
:1005F40080B400AF00BFBD465DF8047B70470000C7
:1006040080B500AF2021024801F030FB00BF80BD5F
:10061400002C014080B400AF0B4B1B88002B05D18C
:100624000A4B1B680133094A136004E0074B1B683B
:10063400013B064A1360064B4FF400525A6100BF57
:10064400BD465DF8047B7047540000205000002034
:100654000004014080B500AF00F08CF800BF80BDFD
:1006640080B400AF00BFBD465DF8047B7047000056
:1006740080B582B000AF0121224800F00CFC0121BA
:10068400214800F008FC0121204800F004FC01216D
:100694001F4800F000FC3B46184600F089FF012388
:1006A400FB7100233B710823BB7104233B600423CB
:1006B4007B713B461946174800F0DEFE032001F02B
:1006C40011F900220021262001F0EBF8002300227A
:1006D4004FF4E131104801F0F1FA01210E4801F024
:1006E40072FB01210C4801F083FB01210A4801F04F
:1006F40055FB01220949084801F08FFB00BF083768
:10070400BD4680BD11001C000200180012001C0030
:1007140003001800000801400044004007000C00DA
:1007240080B584B000AF01214FF4C01000F0B3FBDA
:100734000D21022000F08CFF3B1D184600F022FE24
:1007440001237B7300233B714FF40053BB600023F0
:100754003B733B1D184600F02BFE032001F0C2F84A
:1007640000220021282001F09CF800BF1037BD466C
:1007740080BD000080B582B000AF8021114801F037
:1007840091FB0346002B18D00F4B1B881B0A9BB20E
:10079400FB71FB799BB219460A4801F072FB0A4BC4
:1007A4001B88BB71BB799BB21946064801F069FBF3
:1007B40000220649034801F030FB00BF0837BD465C
:1007C40080BD00BF004400400000002007000C0072
:1007D4002DE9B0438CB000AF6C490968C8170A46CC
:1007E4000346C7E90A236A4B3C1D1D460FCD0FC4BF
:1007F4002B6823600023FB76002387F8273000232F
:1008040087F82630D7E90A23002B0BDA4D2387F823
:100814002630D7E90A230021D2F1000861EB03094D
:10082400C7E90A89D7E90A23134332D197F9272064
:10083400D3B20133DBB287F82730134630333B445D
:10084400302203F82C2C2AE0D7E90A014FF00A02DF
:100854004FF00003FFF7B4FC1346FB76D7E90A0117
:100864004FF00A024FF00003FFF7AAFC02460B46C2
:10087400C7E90A23FB7E97F92710CAB20132D2B224
:1008840087F827203033DAB201F130033B4403F810
:100894002C2CD7E90A23012A73F10003D4DA97F93F
:1008A4002630002B0DD097F9273030333B442D22CE
:1008B40003F82C2C97F92730DBB20133DBB287F82D
:1008C400273097F9273030333B440D2203F82C2C82
:1008D40097F827300133DBB287F8273097F92730B0
:1008E40030333B440A2203F82C2C00233B621FE0E4
:1008F4003A1D3B6A13441B78BB7697F927203B6A61
:10090400D31A013B30333B4413F82C1C3A1D3B6A89
:1009140013440A461A7097F927203B6AD31A013BFD
:1009240030333B44BA7E03F82C2C3B6A01333B62E0
:1009340097F92730DA0F13445B105BB21A463B6A0F
:100944009342D5DB0023FB6114E000BF114B1B680D
:10095400C3F3C013DBB2002BF8D03A1DFB69134478
:100964001B785BB29BB219460A4801F08AFAFB690C
:100974000133FB6197F92730FA699A42E5D900BF40
:1009840000BF3037BD46BDE8B08300BF5000002033
:100994009C2300080044004080B584B000AFFFF7FA
:1009A400C9FD01F0A5FBA54800F0D0FB0121A44836
:1009B40000F071FA0121A34800F06DFA0121A24868
:1009C40000F069FA1021A14800F00CFE20219F4894
:1009D40000F017FE9E4B0222DA719D4B00221A7121
:1009E4009B4B10229A719A4B30221A60984B042226
:1009F4005A719749954800F03FFD954B4FF460625A
:100A04001A60934B08229A71914B00221A71904BF1
:100A140004225A718E4B0122DA718D498B4800F001
:100A24002BFD8B4B4FF460421A60894B08229A715C
:100A3400874B00221A71864B04225A71844B01227F
:100A4400DA718349834800F017FD814B4FF48052DB
:100A54001A607F4B00229A717D4B00221A717C4BE5
:100A640004225A717A4B0122DA717949794800F0EB
:100A740003FD774B4FF400521A60754B00229A71B4
:100A8400734B00221A71724B04225A71704B01226B
:100A9400DA716F49704800F0EFFCFFF7E9FD674B2E
:100AA4001B686E4AA2FB03239B0B9BB2013B9AB2C9
:100AB4006B4B1A806A4B1B88013B1A4640F2771332
:100AC40002FB03F3674AA2FB03239B099AB2664B1A
:100AD4001A80634B1B88013B1A4613469B00134440
:100AE4009A001344614AA2FB03235B099AB2604B48
:100AF4001A805B4B1B88002219465E4800F052FFA7
:100B040000215C4800F065FF5B4800F02CFF5A4B65
:100B140007221A70584B01225A71574B0122DA707E
:100B2400554B01225A70544B01229A71524B0022A8
:100B34001A71514B00229A704F4A02214D4800F01D
:100B44005DFF494B1B881A4602214A4801F058F8B8
:100B5400494A0421474800F051FF454B1B881A4677
:100B64000421444801F04CF80121424801F090F876
:100B74000121404800F0E2FE40F2EE23FB813F4BAE
:100B84001B88DBB21A461021304800F049FDFB896E
:100B9400334A1288013A02FB03F3324AA2FB0323CD
:100BA4009B099AB2304B1A802F4B1B881A4602219C
:100BB400304801F025F8FFF7B3FD314B1B88194687
:100BC400304801F05EF92E4B1B8801339AB22C4B4E
:100BD4001A802A4B1B88002B16D0214B1B88013B03
:100BE4001A464FF47A7302FB03F31E4AA2FB032353
:100BF4009B099AB21E4B1A801D4B1B881A4604216E
:100C04001C4800F0FDFF16E0154B1B88013B1A46FB
:100C140013469B0013445B001A46124BA3FB0223AA
:100C24009B099AB2124B1A80114B1B881A46042155
:100C3400104800F0E5FF0023BB604FE0680000208F
:100C44000B001800020018000300180000080140FF
:100C540058000020000C0140001001405917B7D182
:100C64007C000020D34D6210800000201F85EB51D2
:100C740082000020002C014060000020540000206D
:100C84000000002000440040FB89394A1288013AE0
:100C940002FB03F3374AA2FB03239B099AB2364BA8
:100CA4001A80354B1B881A460221344800F0A8FFED
:100CB400FB89013BFB81324B1B68324A82FB0312E6
:100CC4009210DB17D31A1AB22F4B1A80FFF780FD4C
:100CD400052001F0E5FABB680133BB60BB6840F254
:100CE400ED229342D0DD00237B6029E0FB89204A7A
:100CF4001288013A02FB03F31E4AA2FB03239B0959
:100D04009AB21D4B1A801C4B1B881A4602211B48A1
:100D140000F076FFFB890133FB81194B1B68194AEC
:100D240082FB03129210DB17D31A1AB2164B1A80E5
:100D3400FFF74EFD052001F0B3FA7B6801337B60B9
:100D44007B6840F2ED229342D0DD104B1B88002BD0
:100D540003D10E4B01221A8002E00C4B00221A80B0
:100D640040F2EE237B80002001F032FA25E700BF39
:100D74007C000020D34D621080000020002C014034
:100D840050000020676666664E0000205400002074
:100D940080B400AF184A136843F00103136000BF26
:100DA400154B1B68C3F34003DBB2012BF8D1124A85
:100DB40053686FF30103536000BF0F4B5B68C3F3C9
:100DC4008103DBB2002BF8D10B4B1B680A4A23F0DA
:100DD400867323F480331360074B00225A60064B5A
:100DE40000221A63044B4FF41F029A6000BFBD46F1
:100DF4005DF8047B704700BF0010024080B485B0EA
:100E040000AF78600023FB737B681B0C03F1804305
:100E140003F504331A687B6803F01F03012101FA08
:100E240003F31A407B6803F01F03012101FA03F363
:100E34009A4202D00023FB7301E00123FB73FB7B86
:100E440018461437BD465DF8047B704780B582B000
:100E540000AF00237B600023FB7002E07B6801335A
:100E64007B601120FFF7CAFF0346012B03D07B6888
:100E7400B3F5405FF2D31120FFF7C0FF0346012B07
:100E840002D00023FB7001E00123FB70FB781846BD
:100E94000837BD4680BD80B483B000AF78600B4690
:100EA400FB70FB78012B16D17B681B0C03F180438C
:100EB40003F5043319687B6803F01F0301229A4089
:100EC4007B681B0C03F1804303F50433184641EAA5
:100ED4000203036017E07B681B0C03F1804303F5F6
:100EE400043319687B6803F01F03012202FA03F339
:100EF400DA437B681B0C03F1804303F50433184683
:100F040001EA0203036000BF0C37BD465DF8047BB1
:100F14007047000080B483B000AF03460A46FB71FB
:100F24001346BB71FB79042B3ED801A252F823F07F
:100F3400490F00085D0F0008710F0008850F0008B5
:100F4400990F00081C4ABB7903F00103D9B2136856
:100F540061F30003136028E0174ABB7903F001032F
:100F6400D9B2136861F3104313601EE0124ABB79CF
:100F740003F00103D9B2136861F31863136014E03A
:100F84000D4ABB7903F00103D9B2136A61F300037C
:100F940013620AE0084ABB7903F00103D9B2536A29
:100FA40061F30003536200E000BF00BF0C37BD468D
:100FB4005DF8047B704700BF0010024080B483B02A
:100FC40000AF0346FB71074AFB7903F00F03D9B264
:100FD400536861F30713536000BF0C37BD465DF8D7
:100FE400047B70470010024080B483B000AF034616
:100FF400FB71074AFB7903F00703D9B2536861F325
:101004000A23536000BF0C37BD465DF8047B70476C
:101014000010024080B483B000AF0346FB71074A5E
:10102400FB7903F00703D9B2536861F3CD2353600E
:1010340000BF0C37BD465DF8047B704700100240CA
:1010440080B483B000AF0346FB710B46BB711346FB
:101054007B71FB79002B0AD11F4A53686FF310434D
:1010640053601D4A136B43F00073136312E01A4A72
:10107400536843F480335360FB79012B05D1164A3E
:1010840053686FF35143536004E0134A536843F4C5
:1010940000335360104ABB7903F00F03D9B253688D
:1010A40061F395435360BB791B110B4A03F00303AF
:1010B400D9B2536861F35E735360074A7B7903F0D6
:1010C4000103D9B2536861F3DF73536000BF0C3777
:1010D400BD465DF8047B70470010024080B483B0C5
:1010E40000AF0346FB71114AFB7903F00303D9B245
:1010F400536861F30103536000BF00BF00BF00BF2A
:1011040000BF00BF00BF00BF00BF00BF00BF00BFE3
:1011140000BF00BF00BF00BF00BF00BF00BF00BFD3
:1011240000BF0C37BD465DF8047B704700100240D9
:1011340080B400AF044B5B68C3F38103DBB2184691
:10114400BD465DF8047B70470010024080B58AB04C
:1011540000AF786000233B6200237B620023FB61C5
:101164000023BB6100237B6100233B61FFF7E0FFA9
:101174000346FB73FB7B022B20D0022B69DC002B84
:1011840002D0012B16D064E05D4B5B6DC3F34023AA
:10119400DBB2002B0AD05A4B1B6BC3F34063DBB2A8
:1011A400002B03D07B68574A1A6056E07B68564A86
:1011B4001A6052E07B68544A1A604EE0504B5B68F8
:1011C400C3F30043DBB2BB614D4B5B68C3F38343A2
:1011D400DBB27B624A4B5B68C3F34173DBB2FB61F6
:1011E400FB69002B02D17B6A0F2B06D1FB691A0124
:1011F4007B6A134401337B6202E07B6A02337B62C5
:10120400BB69002B06D17B6A404A03FB02F27B6870
:101214001A6022E03A4B5B68C3F34043DBB2002B15
:1012240010D0374B5B6DC3F30133DBB23B623B6AD7
:101234000233354AB2FBF3F37A6A03FB02F27B68AA
:101244001A600AE07B6A304A03FB02F27B681A6088
:1012540003E07B682C4A1A6000BF294B5B68C3F328
:101264000313DBB27B612A4A7B6913441B783B611D
:101274007B681A683B69DA407B685A60204B5B687C
:10128400C3F30223DBB27B61224A7B6913441B78DC
:101294003B617B685A683B69DA407B68DA60184BCB
:1012A4005B68C3F3C223DBB27B611B4A7B691344D3
:1012B4001B783B617B685A683B69DA407B689A60BB
:1012C4000F4B5B68C3F30073DBB27B617B699B00EC
:1012D4000B4A5268C2F38132D2B213437B610F4A84
:1012E4007B6913441B783B617B689A683B69B2FB5A
:1012F400F3F27B681A6100BF2837BD4680BD00BF8A
:1013040000100240006CDC0200127A0000093D006B
:10131400B0230008C0230008C8230008D023000815
:1013240080B483B000AF0346FB71FB79012B05D178
:10133400084A536D43F03003536504E0054A536D86
:101344006FF30513536500BF0C37BD465DF8047B8E
:10135400704700BF0010024080B483B000AF034662
:10136400FB71074AFB7903F00303D9B2536D61F3B0
:101374000D33536500BF0C37BD465DF8047B7047E1
:101384000010024080B483B000AF78607B68002214
:101394005A727B6800225A607B6801221A727B6849
:1013A40001221A7000BF0C37BD465DF8047B7047FC
:1013B40080B485B000AF78600023FB607B685B6815
:1013C400FB602C4B1A68FB68DB432A4913400B6013
:1013D400284B5A68FB68DB43264913404B607B6803
:1013E4005B7A002B40D07B681B78002B06D1214B05
:1013F4001A682049FB6813430B6005E01D4B5A68CB
:101404001C49FB6813434B601A4B9A68FB68DB4327
:10141400184913408B60174BDA68FB68DB431549A6
:101424001340CB607B681B7A002B06D1114B9A6862
:101434001049FB6813438B6016E07B681B7A012B11
:1014440006D10C4BDA680B49FB681343CB600BE005
:10145400084B9A680749FB6813438B60054BDA68AD
:101464000449FB681343CB6000BF1437BD465DF8E5
:10147400047B70470004014080B485B000AF7860FD
:1014840039603B681B683B813B689B79032B02D125
:1014940000237B8130E03B689B79002B15D13B68AE
:1014A4005B799BB203F00F037B813B685B79182B5C
:1014B40003D13A897B681A611EE03B685B79282B6B
:1014C4001AD13A897B685A6116E03B689B791BB252
:1014D40003F008031AB23B681B791BB203F0040340
:1014E4001BB213431AB23B68DB791BB203F003034C
:1014F4001BB213431BB27B813B89DBB2002B25D08B
:101504000023FB601FE03A89FB6842FA03F303F00F
:101514000103002B14D07B681B68FA6892000F212A
:1015240001FA02F2D2431A407B681A607B681B6896
:101534007989FA68920001FA02F21A437B681A6008
:10154400FB680133FB60FB68072BDCD93B89FF2B6D
:1015540028D93B891B0A3B810023FB601FE03A89A1
:10156400FB6842FA03F303F00103002B14D07B68F9
:101574005B68FA6892000F2101FA02F2D2431A4022
:101584007B685A607B685B687989FA68920001FA23
:1015940002F21A437B685A60FB680133FB60FB6804
:1015A400072BDCD900BF1437BD465DF8047B7047B8
:1015B40080B483B000AF78607B684FF6FF721A6026
:1015C4007B6800229A717B6800221A717B6804226E
:1015D4005A717B680122DA7100BF0C37BD465DF891
:1015E400047B704780B483B000AF78600B467B8087
:1015F4007A887B681A6100BF0C37BD465DF8047BAE
:10160400704780B483B000AF78600B467B807A88E3
:101614007B685A6100BF0C37BD465DF8047B704798
:1016240080B483B000AF78600B467B8013467B7038
:101634007B78002B03D07A887B681A6102E07A8871
:101644007B685A6100BF0C37BD465DF8047B704768
:1016540080B485B000AF03460A46FB711346BB71E4
:101664000023FB60BB7903F003039B000F2202FA03
:1016740003F3FB60BB799B08DBB2032B5AD801A2AE
:1016840052F823F099160008C1160008E91600085C
:10169400111700082B4B9A68FB68DB432949134058
:1016A4008B60284B9A68F979BB7903F003039B009C
:1016B40001FA03F3234913438B603CE0214BDA68BE
:1016C400FB68DB431F491340CB601E4BDA68F97992
:1016D400BB7903F003039B0001FA03F31949134395
:1016E400CB6028E0174B1A69FB68DB4315491340AC
:1016F4000B61144B1A69F979BB7903F003039B005E
:1017040001FA03F30F4913430B6114E00D4B5A69BB
:10171400FB68DB430B4913404B610A4B5A69F97967
:10172400BB7903F003039B0001FA03F30549134358
:101734004B6100E000BF00BF1437BD465DF8047B79
:10174400704700BF0000014080B485B000AF7860EE
:101754007B6803F00703FB600C4BDB68BB60BA6873
:101764004FF6FF031340BB60FB681A02BB681343C8
:1017740043F0BF6343F40033BB60044ABB68D360E7
:1017840000BF1437BD465DF8047B704700ED00E0F0
:1017940080B400AF044BDB681B0A03F00703184650
:1017A400BD465DF8047B704700ED00E080B483B073
:1017B40000AF0346FB7197F90730002B0BDBFB7975
:1017C40003F01F02074997F907305B09012000FA6B
:1017D40002F241F8232000BF0C37BD465DF8047BBC
:1017E400704700BF00E100E080B483B000AF03465F
:1017F4003960FB7197F90730002B0ADB3B68DAB2DA
:101804000C4997F907301201D2B20B4483F8002334
:101814000AE03B68DAB20849FB7903F00F03043BA2
:101824001201D2B20B441A7600BF0C37BD465DF8E4
:10183400047B704700E100E000ED00E080B489B073
:1018440000AFF860B9607A60FB6803F00703FB61DE
:10185400FB69C3F10703042B28BF0423BB61FB69A5
:101864000433062B02D9FB69033B00E000237B61B0
:101874004FF0FF32BB6902FA03F3DA43BB681A4044
:101884007B699A404FF0FF317B6901FA03F3D94336
:101894007B680B40134318462437BD465DF8047B30
:1018A400704780B586B000AF0346B9607A60FB73B9
:1018B40000237B61FFF76CFF03467A68B96818461A
:1018C400FFF7BCFF786197F90F3079691846FFF785
:1018D4008BFF97F90F301846FFF768FF00BF1837E2
:1018E400BD4680BD80B582B000AF0346FB71FB7975
:1018F4001846FFF729FF00BF0837BD4680BD00002A
:1019040080B483B000AF0346FB71FB79042B06D18E
:10191400094B1B68084A43F00403136005E0064BB7
:101924001B68054A23F00403136000BF0C37BD464F
:101934005DF8047B704700BF10E000E080B483B022
:1019440000AF78600B46FB70FB7803F00103D9B25B
:101954007A68136861F30003136000BF0C37BD4657
:101964005DF8047B704780B483B000AF78607B6817
:1019740000221A707B6800225A707B6800229A70D9
:101984007B680022DA707B6800221A717B6800226F
:101994005A717B6800229A7100BF0C37BD465DF80E
:1019A400047B704780B485B000AFF860B9607A609A
:1019B400FB68BA68DA62FB687A689A62FA68536903
:1019C40043F00103536100BF1437BD465DF8047B47
:1019D400704780B483B000AF78600B46FB70FB782F
:1019E40003F00703D9B27A68136861F3061313602E
:1019F40000BF0C37BD465DF8047B704780B489B0E6
:101A040000AFF8600B467A60FB720023FB8300236F
:101A1400BB8300237B83FB7A9BB208333B83FB7A33
:101A24009BB20933FB827B685B781A463B8B02FAD4
:101A340003F3FB837B689B781A46FB8A02FA03F361
:101A4400BB83FB685B68FA8A012101FA02F2D24384
:101A54001A40FB685A60FB685A68BB8B1A43FB68E0
:101A64005A60FB685B683A8B012101FA02F2D243A7
:101A74001A40FB685A60FB685A68FB8B1A43FB6880
:101A84005A60FB7A7B837B8B062B3DD801A252F8EC
:101A940023F000BFB51A00080D1B0008CB1A00087C
:101AA4000D1B0008E11A00080D1B0008F71A0008B6
:101AB4007B681B7803F00703D9B2FA68936961F372
:101AC4000613936121E07B681B7803F00703D9B206
:101AD400FA68936961F30E33936116E07B681B78AF
:101AE40003F00703D9B2FA68D36961F30613D3612B
:101AF4000BE07B681B7803F00703D9B2FA68D3695B
:101B040061F30E33D36100E000BFFB7A9BB25B004C
:101B14009BB201333B83FB7A9BB25B009BB20333E2
:101B2400FB827B68DB781A463B8B02FA03F3FB8368
:101B34007B681B791A46FB8A02FA03F3BB83FB68B2
:101B44001B6AFA8A012101FA02F2D2431A40FB68A5
:101B54001A62FB681A6ABB8B1A43FB681A62FB6839
:101B64001B6A3A8B012101FA02F2D2431A40FB6844
:101B74001A62FB681A6AFB8B1A43FB681A62FB7AC7
:101B84009BB25B003B83FB7A01339BB25B00FB821D
:101B94007B685B791A46FB7A5B0002FA03F3FB83EA
:101BA4007B689B791A46FB7A01335B0002FA03F3E4
:101BB400BB83FB681B6AFA8A012101FA02F2D24351
:101BC4001A40FB681A62FB681A6ABB8B1A43FB68EB
:101BD4001A62FB681B6A3A8B012101FA02F2D243B2
:101BE4001A40FB681A62FB681A6AFB8B1A43FB688B
:101BF4001A6200BF2437BD465DF8047B704700BFFE
:101C040080B487B000AFF8600B467A60FB72FB7A51
:101C1400FB82FB8A062B21D801A252F823F000BFD5
:101C2400411C0008611C0008491C0008611C0008D4
:101C3400511C0008611C0008591C0008FB687A68E4
:101C44005A630CE0FB687A689A6308E0FB687A6878
:101C5400DA6304E0FB687A681A6400E000BF00BF3E
:101C64001C37BD465DF8047B704700BF80B483B069
:101C740000AF78600B46FB707B685A69FB781A43A7
:101C84007B685A6100BF0C37BD465DF8047B704722
:101C940080B483B000AF78600B46FB70FB7803F030
:101CA4000103D9B27A68536C61F3CF33536400BF34
:101CB4000C37BD465DF8047B7047000080B58CB0DE
:101CC40000AFF860B96011461A460B46FB71134623
:101CD400BB7107F114031846FFF738FAFB682A4A68
:101CE40093420BD0FB68294A934207D0FB68284AE9
:101CF400934203D0FB68274A934202D1FB69FB62FB
:101D040001E03B6AFB62FA6A13469B0013445B00E2
:101D14001A46BB68B2FBF3F3BB62B96A1E4BA3FB62
:101D24000123DA0813469B0013445B00CA1A042AF1
:101D340006D8BB6A184AA2FB0323DB08BB6206E091
:101D4400BB6A154AA2FB0323DB080133BB62BB6AEF
:101D540099B2FA68936861F30F039360FB7903F017
:101D64000103D9B2FA68D36861F30C33D360BB7949
:101D740003F00303D9B2FA68136961F30D331361F5
:101D840000BF3037BD4680BD0038014000600140CF
:101D94000064014000680140CDCCCCCC80B483B059
:101DA40000AF78600B46FB70FB7803F00103D9B2F7
:101DB4007A68D36861F34D33D36000BF0C37BD46F6
:101DC4005DF8047B704780B483B000AF78600B4645
:101DD400FB70FB7803F00103D9B27A68D36861F32E
:101DE400C303D36000BF0C37BD465DF8047B704766
:101DF40080B483B000AF78600B46FB70FB7803F0CF
:101E04000103D9B27A68D36861F38203D36000BF57
:101E14000C37BD465DF8047B704780B485B000AFD5
:101E2400F860B9601346FB71FB79012B11D1BB68D3
:101E34001A0CFB6813441A68BB6803F01F030121E2
:101E440001FA03F3B968080CF968014413430B6001
:101E540011E0BB681A0CFB6813441A68BB6803F0F2
:101E64001F03012101FA03F3DB43B968080CF96885
:101E7400014413400B6000BF1437BD465DF8047B7A
:101E8400704780B483B000AF78600B467B807B885A
:101E9400C3F308027B685A6000BF0C37BD465DF887
:101EA400047B704780B483B000AF786039607B688E
:101EB4001A683B681340002B01D0012300E0002383
:101EC40018460C37BD465DF8047B7047002103E0DB
:101ED4000B4B5B58435004310A480B4B42189A424F
:101EE400F6D30A4A02E0002342F8043B084B9A4224
:101EF400F9D300F011F800F01FFAFEF74DFD70471A
:101F0400F8230008000000202C0000202C000020F2
:101F140090000020FEE7000080B400AF1E4BD3F811
:101F240088301D4A43F47003C2F888301B4A136892
:101F340043F00103136000BF184B1B68C3F3400355
:101F4400DBB2012BF8D1154A53686FF301035360D8
:101F540000BF124B5B68C3F38103DBB2002BF8D1E3
:101F64000E4B1B680D4A23F0867323F480331360F1
:101F74000A4B00225A60094B00221A63074B4FF4A4
:101F84001F029A60044B4FF000629A6000BFBD4686
:101F94005DF8047B704700BF00ED00E000100240D4
:101FA40080B588B000AF0023BB610023FB61002330
:101FB4007B6100233B610023FB600023BB60FFF7D0
:101FC400B7F80346FB71FB79022B20D0022B69DCA6
:101FD400002B02D0012B16D064E03F4B5B6DC3F3A2
:101FE4004023DBB2002B0AD03B4B1B6BC3F3406393
:101FF400DBB2002B03D0394B394A1A6056E0374B19
:10200400384A1A6052E0354B364A1A604EE0324B79
:102014005B68C3F30043DBB23B612F4B5B68C3F3E4
:102024008343DBB2FB612C4B5B68C3F34173DBB2CC
:102034007B617B69002B02D1FB690F2B06D17B6985
:102044001A01FB6913440133FB6102E0FB690233AB
:10205400FB613B69002B06D1FB69234A02FB03F3B6
:102064001E4A136022E01C4B5B68C3F34043DBB29F
:10207400002B10D0184B5B6DC3F30133DBB2BB6193
:10208400BB690233174AB2FBF3F3FA6902FB03F3A9
:10209400124A13600AE0FB69124A02FB03F30F4A77
:1020A400136003E00D4B0F4A1A6000BF0A4B5B68D4
:1020B400C3F30313DBB2FB600C4AFB6813441B78C5
:1020C400BB60064B1A68BB6822FA03F3034A136029
:1020D40000BF2037BD4680BD001002400400002030
:1020E400006CDC0200127A0000093D00D8230008CD
:1020F40080B500AF00F0B4F8002000F035F80120FE
:1021040000F032F8022000F02FF8002000F084F8EC
:10211400012000F081F8022000F07EF800F002F8BF
:1021240000BF80BD80B582B000AF01210C48FEF72E
:10213400B2FE3B461846FFF73BFA0123FB7100232E
:102144003B710023BB7101233B6028237B713B4619
:1021540019460448FFF790F900BF0837BD4680BD13
:10216400020018000008014080B584B000AF0346A7
:10217400FB71FB79134A52F8233001211846FEF70C
:102184008AFE07F108031846FFF712FA0123FB73CE
:1021940000233B731023BB73FB790B4A32F81330D3
:1021A400BB6004237B73FB79084A52F8233007F1A0
:1021B400080211461846FFF75FF900BF1037BD4605
:1021C40080BD00BF1C000020140000200800002077
:1021D40080B483B000AF0346FB71FB79022B10D8A7
:1021E400FB790B4A32F81330002B0BD0FB79084AE9
:1021F40032F81310FB79074A52F823300A465A6121
:1022040000E000BF0C37BD465DF8047B704700BF9B
:10221400140000200800002080B483B000AF0346FF
:10222400FB71FB79022B10D8FB790B4A32F813307F
:10223400002B0BD0FB79084A32F81310FB79074ABC
:1022440052F823300A461A6100E000BF0C37BD463D
:102254005DF8047B704700BF1400002008000020D4
:1022640080B500AF0420FFF74BFB094B1B68094AFC
:10227400A2FB03239B0C084A1360074B1B684FF413
:102284007A7202FB03F3054A136000BF80BD00BFEE
:102294000400002083DE1B43880000208C00002003
:1022A40080B485B000AF0346FB800023FB6035E0BB
:1022B400FB88322B0AD91E4B1B681E4A322101FBB4
:1022C40003F35360FB88323BFB8008E0FB88184A29
:1022D4001268184902FB03F34B600023FB80154B83
:1022E40000229A60134B1B68124A43F001031360E7
:1022F400104B1B68FB60FB6803F00103002B04D048
:10230400FB6803F48033002BF2D00A4B1B68094AA4
:1023140023F001031360074B00229A60FB88002B13
:10232400C6D100BF00BF1437BD465DF8047B7047BB
:102334008C00002010E000E070B50D4D0D4C641BC6
:10234400A4100026A64209D10B4D0C4C00F018F83D
:10235400641BA4100026A64205D170BD55F8043BA9
:1023640098470136EEE755F8043B98470136F2E703
:10237400F0230008F0230008F0230008F4230008E9
:10238400F8B500BFF8BC08BC9E467047F8B500BF5E
:08239400F8BC08BC9E4670472E
:10239C003030303030303030303030303030303031
:1023AC003030303000000000000000000102030457
:1023BC0006070809000000000102030400000000E9
:1023CC000102030402040608020C081000000000BD
:0C23DC00000000000102030406070809CD
:0823E8007CDEFF7F0100000014
:0423F000A901000837
:0423F4008501000857
:1023F8000100010000127A0000140140001401409D
:102408000014014000200040008000000500180072
:0C2418000500180005001800010000007D
:0400000508001ED100
:00000001FF
