:020000040800F2
:1000000000800120B11A0008FB0200080903000863
:100010000F030008150300081B0300080000000080
:1000200000000000000000000000000021030008A4
:100030002F030008000000003D0300084D030008E6
:10004000F91A0008F91A0008F91A0008F91A000844
:10005000F91A0008F91A0008F91A0008F91A000834
:10006000F91A0008F91A0008F91A0008F91A000824
:10007000F91A0008F91A0008F91A0008F91A000814
:10008000F91A0008F91A0008F91A0008F91A000804
:10009000F91A0008F91A0008F91A0008F91A0008F4
:1000A000F91A0008F91A0008F91A0008F91A0008E4
:1000B000F91A0008F91A0008F91A0008F91A0008D4
:1000C000F91A0008F91A0008F91A0008F91A0008C4
:1000D000F91A0008F91A0008A1030008AD03000886
:1000E00061030008F91A0008F91A0008F91A000853
:1000F000F91A0008F91A0008F91A0008F91A000894
:10010000F91A0008F91A0008F91A0008F91A000883
:10011000F91A0008F91A0008F91A0008F91A000873
:10012000F91A0008F91A0008F91A0008F91A000863
:10013000F91A0008F91A0008F91A0008F91A000853
:1001400000000000000000000000000000000000AF
:10015000F91A0008F91A0008F91A0008F91A000833
:10016000F91A0008F91A0008F91A0008F91A000823
:10017000F91A0008F91A0008F91A0008F91A000813
:04018000F91A000860
:1001900010B5054C237833B9044B13B10448AFF3C1
:1001A00000800123237010BD90000020000000009B
:1001B0008428000808B5034B1BB103490348AFF37B
:1001C000008008BD00000000940000208428000882
:1001D000034613F8012B002AFBD1181A0138704787
:1001E00001F0FF01102A2BDB10F0070F08D010F8E8
:1001F000013B013A8B422DD010F0070F42B3F6D1EC
:10020000F0B441EA012141EA014122F007047FF004
:1002100000070023F0E80256083C85EA010586EA5B
:10022000010685FA47F5A3FA87F586FA47F6A5FA97
:1002300087F68EB9EED1F0BC01F0FF0102F00702A3
:1002400032B110F8013B013A83EA010313B1F8D14E
:100250000020704701387047002D06BF354603382F
:10026000073815F0010F07D1013015F4807F02BF68
:10027000013015F4C03F0130F0BC0138704700BFB9
:1002800080B500AF00F076FB0121012000F034FCC6
:1002900000BF00F0CDFB0346002BFAD001223B212A
:1002A000022000F0BFFC002000F048FE01210220E7
:1002B00000F022FC00BF192000F092FB0346012B46
:1002C000F9D1002000F06CFC042000F095FC042023
:1002D00000F07CFC012000F015FE022000F0F0FC94
:1002E00000BF00F017FD0346022BFAD1002000F0FA
:1002F00009FE01F047FC00BF80BD80B400AF00BF25
:10030000BD465DF8047B704780B400AFFEE780B463
:1003100000AFFEE780B400AFFEE780B400AFFEE7B9
:1003200080B400AF00BFBD465DF8047B704780B469
:1003300000AF00BFBD465DF8047B704780B400AFDE
:1003400000BFBD465DF8047B7047000080B500AF7C
:100350002021024801F07CFA00BF80BD002C014042
:1003600080B400AF0B4B1B88002B05D10A4B1B68D8
:100370000133094A136004E0074B1B68013B064A3E
:100380001360064B4FF400525A6100BFBD465DF842
:10039000047B7047B8000020B40000200004014036
:1003A00080B500AF00F08CF800BF80BD80B400AF16
:1003B00000BFBD465DF8047B7047000080B582B089
:1003C00000AF0121224800F058FB0121214800F034
:1003D00054FB0121204800F050FB01211F4800F090
:1003E0004CFB3B46184600F0D5FE0123FB71002371
:1003F0003B710823BB7104233B6004237B713B46A4
:100400001946174800F02AFE032001F05DF800228B
:100410000021262001F037F8002300224FF4E131BB
:10042000104801F03DFA01210E4801F0BEFA012109
:100430000C4801F0CFFA01210A4801F0A1FA01228B
:100440000949084801F0DBFA00BF0837BD4680BD06
:1004500011001C000200180012001C00030018000C
:10046000000801400044004007000C0080B584B043
:1004700000AF01214FF4C01000F0FFFA0D2102205F
:1004800000F0D8FE3B1D184600F06EFD01237B7383
:1004900000233B714FF40053BB6000233B733B1DB3
:1004A000184600F077FD032001F00EF8002200212D
:1004B000282000F0E8FF00BF1037BD4680BD0000D7
:1004C00080B582B000AF8021114801F0DDFA03460B
:1004D000002B18D00F4B1B881B0A9BB2FB71FB79BA
:1004E0009BB219460A4801F0BEFA0A4B1B88BB7141
:1004F000BB799BB21946064801F0B5FA00220649BD
:10050000034801F07CFA00BF0837BD4680BD00BF3C
:10051000004400400000002007000C00B0B58AB085
:1005200002AFC7E900011A4B1B681A4A82FB03128B
:100530009210DB17D31ADA171C461546C7E9004597
:1005400007F10800D7E90023CDE90023124A14215E
:1005500001F008FD0023FB610CE007F10802FB69D4
:1005600013441B789BB219460C4801F07CFAFB69D6
:100570000133FB6107F108031846FFF729FE024625
:10058000FB699342E9D300BF00BF2037BD46B0BD31
:10059000B4000020676666669C280008004400409E
:1005A0002DE9B04384B000AFFFF76AFE01F092FB83
:1005B000AD4800F0BDFB0121AC4800F05EFA01211E
:1005C000AB4800F05AFA0121AA4800F056FA10216F
:1005D000A94800F0F9FD2021A74800F004FEA74B30
:1005E0000222DA71A54B00221A71A44B10229A71D3
:1005F000A24B30221A60A14B04225A719F499E4897
:1006000000F02CFD9D4B4FF460621A609B4B08225A
:100610009A719A4B00221A71984B04225A71974B87
:100620000122DA719549944800F018FD934B4FF47C
:1006300060421A60914B08229A71904B00221A7105
:100640008E4B04225A718D4B0122DA718B498C48F2
:1006500000F004FD894B4FF480521A60874B002252
:100660009A71864B00221A71844B04225A71834B73
:100670000122DA718149824800F0F0FC7F4B4FF48F
:1006800000521A607D4B00229A717C4B00221A7135
:100690007A4B04225A71794B0122DA7177497948F1
:1006A00000F0DCFCFFF78AFE6F4B1B68764AA2FB6A
:1006B00003239B0B9BB2013B9AB2744B1A80734B82
:1006C0001B88013B1A4640F2771302FB03F3704A82
:1006D000A2FB03239B099AB26E4B1A806B4B1B88BB
:1006E000013B1A4613469B0013449A0013446A4A7E
:1006F000A2FB03235B099AB2684B1A80634B1B88E9
:1007000000221946664800F03FFF0021644800F0CF
:1007100052FF644800F019FF624B07221A70614BC8
:1007200001225A715F4B0122DA705E4B01225A702E
:100730005C4B01229A715B4B00221A71594B0022CB
:100740009A70584A0221564800F04AFF514B1B88C4
:100750001A460221524801F045F8524A04215048F5
:1007600000F03EFF4D4B1B881A4604214C4801F017
:1007700039F801214A4801F07DF80121484800F08C
:10078000CFFE40F2EE23FB81474B1B88DBB21A46BB
:100790001021394800F036FDFB893C4A1288013AA5
:1007A00002FB03F33A4AA2FB03239B099AB2394B9B
:1007B0001A80384B1B881A460221394801F012F87A
:1007C000FFF754FE394B1B881946394801F04BF9A5
:1007D000364B1B8801339AB2344B1A80324B1B883C
:1007E000DBB21A461021244800F00CFD0023BB6048
:1007F00032E0FB89254A1288013A02FB03F3244ABE
:10080000A2FB03239B099AB2224B1A80214B1B881F
:100810001A460221224800F0E5FFFB89013BFB81DB
:10082000244B1B68244A82FB03129210DB17D31A55
:100830001AB2224B1A80214BB3F900301BB2DA17DF
:100840001C46154620462946FFF768FE322001F077
:1008500019FBBB680133BB60BB6840F2ED229342D9
:10086000C7DD00237B605EE0CC0000200B00180099
:10087000020018000300180000080140BC0000201E
:10088000000C0140001001405917B7D1E0000020D2
:10089000D34D6210E40000201F85EB51E6000020DC
:1008A000002C0140C4000020B800002000000020FF
:1008B00000440040B400002067666666B200002075
:1008C000FB89244A1288013A02FB03F3224AA2FB65
:1008D00003239B099AB2214B1A80204B1B881A468E
:1008E00002211F4800F07EFFFB890133FB811D4B75
:1008F0001B681D4A82FB03129210DB17D31A1AB22F
:100900001A4B1A80194BB3F900301BB2DA1798460C
:10091000914640464946FFF701FE322001F0B2FA07
:100920007B6801337B607B6840F2ED229342C7DD38
:100930000F4B1B88002B03D10D4B01221A8002E0C4
:100940000B4B00221A8040F2EE237B80002001F046
:1009500031FA37E7E0000020D34D6210E4000020B8
:10096000002C0140B400002067666666B2000020DB
:10097000B800002080B400AF184A136843F00103A8
:10098000136000BF154B1B68C3F34003DBB2012BA0
:10099000F8D1124A53686FF30103536000BF0F4B45
:1009A0005B68C3F38103DBB2002BF8D10B4B1B68F0
:1009B0000A4A23F0867323F480331360074B002226
:1009C0005A60064B00221A63044B4FF41F029A60D0
:1009D00000BFBD465DF8047B704700BF00100240B9
:1009E00080B485B000AF78600023FB737B681B0C7C
:1009F00003F1804303F504331A687B6803F01F0397
:100A0000012101FA03F31A407B6803F01F0301215F
:100A100001FA03F39A4202D00023FB7301E00123A1
:100A2000FB73FB7B18461437BD465DF8047B7047AB
:100A300080B582B000AF00237B600023FB7002E032
:100A40007B6801337B601120FFF7CAFF0346012B4F
:100A500003D07B68B3F5405FF2D31120FFF7C0FFEE
:100A60000346012B02D00023FB7001E00123FB7041
:100A7000FB7818460837BD4680BD80B483B000AF10
:100A800078600B46FB70FB78012B16D17B681B0C42
:100A900003F1804303F5043319687B6803F01F03F7
:100AA00001229A407B681B0C03F1804303F5043359
:100AB000184641EA0203036017E07B681B0C03F150
:100AC000804303F5043319687B6803F01F03012298
:100AD00002FA03F3DA437B681B0C03F1804303F54E
:100AE0000433184601EA0203036000BF0C37BD4619
:100AF0005DF8047B7047000080B483B000AF03460C
:100B00000A46FB711346BB71FB79042B3ED801A248
:100B100052F823F0290B00083D0B0008510B000888
:100B2000650B0008790B00081C4ABB7903F0010330
:100B3000D9B2136861F30003136028E0174ABB7948
:100B400003F00103D9B2136861F3104313601EE090
:100B5000124ABB7903F00103D9B2136861F3186339
:100B6000136014E00D4ABB7903F00103D9B2136A94
:100B700061F3000313620AE0084ABB7903F0010342
:100B8000D9B2536A61F30003536200E000BF00BFB3
:100B90000C37BD465DF8047B704700BF0010024073
:100BA00080B483B000AF0346FB71074AFB7903F0C2
:100BB0000F03D9B2536861F30713536000BF0C37BA
:100BC000BD465DF8047B70470010024080B483B0DE
:100BD00000AF0346FB71074AFB7903F00703D9B264
:100BE000536861F30A23536000BF0C37BD465DF8BC
:100BF000047B70470010024080B483B000AF03460E
:100C0000FB71074AFB7903F00703D9B2536861F31C
:100C1000CD23536000BF0C37BD465DF8047B7047A1
:100C20000010024080B483B000AF0346FB710B4656
:100C3000BB7113467B71FB79002B0AD11F4A5368A5
:100C40006FF3104353601D4A136B43F0007313633B
:100C500012E01A4A536843F480335360FB79012B46
:100C600005D1164A53686FF35143536004E0134AA9
:100C7000536843F400335360104ABB7903F00F0309
:100C8000D9B2536861F395435360BB791B110B4A8A
:100C900003F00303D9B2536861F35E735360074AEC
:100CA0007B7903F00103D9B2536861F3DF735360BA
:100CB00000BF0C37BD465DF8047B70470010024052
:100CC00080B483B000AF0346FB71114AFB7903F097
:100CD0000303D9B2536861F30103536000BF00BF3F
:100CE00000BF00BF00BF00BF00BF00BF00BF00BF0C
:100CF00000BF00BF00BF00BF00BF00BF00BF00BFFC
:100D000000BF00BF00BF0C37BD465DF8047B7047D5
:100D10000010024080B400AF044B5B68C3F3810352
:100D2000DBB21846BD465DF8047B704700100240F8
:100D300080B58AB000AF786000233B6200237B62FD
:100D40000023FB610023BB6100237B6100233B6127
:100D5000FFF7E0FF0346FB73FB7B022B20D0022B47
:100D600069DC002B02D0012B16D064E05D4B5B6D7B
:100D7000C3F34023DBB2002B0AD05A4B1B6BC3F3E7
:100D80004063DBB2002B03D07B68574A1A6056E001
:100D90007B68564A1A6052E07B68544A1A604EE0FB
:100DA000504B5B68C3F30043DBB2BB614D4B5B68E8
:100DB000C3F38343DBB27B624A4B5B68C3F341738B
:100DC000DBB2FB61FB69002B02D17B6A0F2B06D1E2
:100DD000FB691A017B6A134401337B6202E07B6A80
:100DE00002337B62BB69002B06D17B6A404A03FB5E
:100DF00002F27B681A6022E03A4B5B68C3F340431F
:100E0000DBB2002B10D0374B5B6DC3F30133DBB289
:100E10003B623B6A0233354AB2FBF3F37A6A03FB67
:100E200002F27B681A600AE07B6A304A03FB02F236
:100E30007B681A6003E07B682C4A1A6000BF294B6C
:100E40005B68C3F30313DBB27B612A4A7B691344FB
:100E50001B783B617B681A683B69DA407B685A60A3
:100E6000204B5B68C3F30223DBB27B61224A7B69C0
:100E700013441B783B617B685A683B69DA407B68A6
:100E8000DA60184B5B68C3F3C223DBB27B611B4A99
:100E90007B6913441B783B617B685A683B69DA4085
:100EA0007B689A600F4B5B68C3F30073DBB27B61B6
:100EB0007B699B000B4A5268C2F38132D2B2134362
:100EC0007B610F4A7B6913441B783B617B689A689E
:100ED0003B69B2FBF3F27B681A6100BF2837BD465D
:100EE00080BD00BF00100240006CDC0200127A00DE
:100EF00000093D00A0280008B0280008B828000814
:100F0000C028000880B483B000AF0346FB71FB79B2
:100F1000012B05D1084A536D43F03003536504E0BB
:100F2000054A536D6FF30513536500BF0C37BD467B
:100F30005DF8047B704700BF0010024080B483B0AE
:100F400000AF0346FB71074AFB7903F00303D9B2F4
:100F5000536D61F30D33536500BF0C37BD465DF82B
:100F6000047B70470010024080B483B000AF78600B
:100F70007B6800225A727B6800225A607B680122DB
:100F80001A727B6801221A7000BF0C37BD465DF8EB
:100F9000047B704780B485B000AF78600023FB60AD
:100FA0007B685B68FB602C4B1A68FB68DB432A4953
:100FB00013400B60284B5A68FB68DB4326491340FB
:100FC0004B607B685B7A002B40D07B681B78002BE2
:100FD00006D1214B1A682049FB6813430B6005E0DA
:100FE0001D4B5A681C49FB6813434B601A4B9A68A7
:100FF000FB68DB43184913408B60174BDA68FB68CA
:10100000DB4315491340CB607B681B7A002B06D16C
:10101000114B9A681049FB6813438B6016E07B689C
:101020001B7A012B06D10C4BDA680B49FB68134382
:10103000CB600BE0084B9A680749FB6813438B6051
:10104000054BDA680449FB681343CB6000BF1437D3
:10105000BD465DF8047B70470004014080B485B054
:1010600000AF786039603B681B683B813B689B79C7
:10107000032B02D100237B8130E03B689B79002B5E
:1010800015D13B685B799BB203F00F037B813B6812
:101090005B79182B03D13A897B681A611EE03B68A3
:1010A0005B79282B1AD13A897B685A6116E03B6834
:1010B0009B791BB203F008031AB23B681B791BB281
:1010C00003F004031BB213431AB23B68DB791BB273
:1010D00003F003031BB213431BB27B813B89DBB2DA
:1010E000002B25D00023FB601FE03A89FB6842FA01
:1010F00003F303F00103002B14D07B681B68FA682C
:1011000092000F2101FA02F2D2431A407B681A6062
:101110007B681B687989FA68920001FA02F21A4327
:101120007B681A60FB680133FB60FB68072BDCD926
:101130003B89FF2B28D93B891B0A3B810023FB609D
:101140001FE03A89FB6842FA03F303F00103002B26
:1011500014D07B685B68FA6892000F2101FA02F2F2
:10116000D2431A407B685A607B685B687989FA6869
:10117000920001FA02F21A437B685A60FB6801335D
:10118000FB60FB68072BDCD900BF1437BD465DF858
:10119000047B704780B483B000AF78607B684FF603
:1011A000FF721A607B6800229A717B6800221A71B4
:1011B0007B6804225A717B680122DA7100BF0C3708
:1011C000BD465DF8047B704780B483B000AF7860A3
:1011D0000B467B807A887B681A6100BF0C37BD465E
:1011E0005DF8047B704780B483B000AF78600B4635
:1011F0007B807A887B685A6100BF0C37BD465DF8FA
:10120000047B704780B483B000AF78600B467B806E
:1012100013467B707B78002B03D07A887B681A6139
:1012200002E07A887B685A6100BF0C37BD465DF8E2
:10123000047B704780B485B000AF03460A46FB715B
:101240001346BB710023FB60BB7903F003039B00D3
:101250000F2202FA03F3FB60BB799B08DBB2032B7E
:101260005AD801A252F823F079120008A1120008FE
:10127000C9120008F11200082B4B9A68FB68DB4387
:10128000294913408B60284B9A68F979BB7903F0A0
:1012900003039B0001FA03F3234913438B603CE0F3
:1012A000214BDA68FB68DB431F491340CB601E4BC0
:1012B000DA68F979BB7903F003039B0001FA03F3C1
:1012C00019491343CB6028E0174B1A69FB68DB43CD
:1012D000154913400B61144B1A69F979BB7903F076
:1012E00003039B0001FA03F30F4913430B6114E05E
:1012F0000D4B5A69FB68DB430B4913404B610A4BAA
:101300005A69F979BB7903F003039B0001FA03F3EF
:10131000054913434B6100E000BF00BF1437BD46D1
:101320005DF8047B704700BF0000014080B485B0C9
:1013300000AF78607B6803F00703FB600C4BDB6851
:10134000BB60BA684FF6FF031340BB60FB681A022C
:10135000BB68134343F0BF6343F40033BB60044AEC
:10136000BB68D36000BF1437BD465DF8047B70478F
:1013700000ED00E080B400AF044BDB681B0A03F013
:1013800007031846BD465DF8047B704700ED00E09A
:1013900080B483B000AF0346FB7197F90730002B90
:1013A0000BDBFB7903F01F02074997F907305B0954
:1013B000012000FA02F241F8232000BF0C37BD469D
:1013C0005DF8047B704700BF00E100E080B483B0AB
:1013D00000AF03463960FB7197F90730002B0ADB39
:1013E0003B68DAB20C4997F907301201D2B20B44CC
:1013F00083F800230AE03B68DAB20849FB7903F07E
:101400000F03043B1201D2B20B441A7600BF0C3713
:10141000BD465DF8047B704700E100E000ED00E0B0
:1014200080B489B000AFF860B9607A60FB6803F0FF
:101430000703FB61FB69C3F10703042B28BF0423E7
:10144000BB61FB690433062B02D9FB69033B00E057
:1014500000237B614FF0FF32BB6902FA03F3DA43EA
:10146000BB681A407B699A404FF0FF317B6901FAF3
:1014700003F3D9437B680B40134318462437BD461A
:101480005DF8047B704780B586B000AF0346B96055
:101490007A60FB7300237B61FFF76CFF03467A6879
:1014A000B9681846FFF7BCFF786197F90F30796982
:1014B0001846FFF78BFF97F90F301846FFF768FFC4
:1014C00000BF1837BD4680BD80B582B000AF03466F
:1014D000FB71FB791846FFF729FF00BF0837BD46AF
:1014E00080BD000080B483B000AF0346FB71FB7980
:1014F000042B06D1094B1B68084A43F00403136010
:1015000005E0064B1B68054A23F00403136000BF87
:101510000C37BD465DF8047B704700BF10E000E06B
:1015200080B483B000AF78600B46FB70FB7803F0AB
:101530000103D9B27A68136861F30003136000BF36
:101540000C37BD465DF8047B704780B483B000AFB4
:1015500078607B6800221A707B6800225A707B6872
:1015600000229A707B680022DA707B6800221A7170
:101570007B6800225A717B6800229A7100BF0C3789
:10158000BD465DF8047B704780B485B000AFF8605D
:10159000B9607A60FB68BA68DA62FB687A689A6256
:1015A000FA68536943F00103536100BF1437BD4625
:1015B0005DF8047B704780B483B000AF78600B4661
:1015C000FB70FB7803F00703D9B27A68136861F304
:1015D0000613136000BF0C37BD465DF8047B7047EF
:1015E00080B489B000AFF8600B467A60FB720023CC
:1015F000FB830023BB8300237B83FB7A9BB20833EE
:101600003B83FB7A9BB20933FB827B685B781A468B
:101610003B8B02FA03F3FB837B689B781A46FB8AB9
:1016200002FA03F3BB83FB685B68FA8A012101FAC3
:1016300002F2D2431A40FB685A60FB685A68BB8BBF
:101640001A43FB685A60FB685B683A8B012101FA18
:1016500002F2D2431A40FB685A60FB685A68FB8B5F
:101660001A43FB685A60FB7A7B837B8B062B3DD841
:1016700001A252F823F000BF95160008ED160008ED
:10168000AB160008ED160008C1160008ED1600089C
:10169000D71600087B681B7803F00703D9B2FA68F5
:1016A000936961F30613936121E07B681B7803F073
:1016B0000703D9B2FA68936961F30E33936116E0B8
:1016C0007B681B7803F00703D9B2FA68D36961F32A
:1016D0000613D3610BE07B681B7803F00703D9B2D4
:1016E000FA68D36961F30E33D36100E000BFFB7A7F
:1016F0009BB25B009BB201333B83FB7A9BB25B00E6
:101700009BB20333FB827B68DB781A463B8B02FA81
:1017100003F3FB837B681B791A46FB8A02FA03F307
:10172000BB83FB681B6AFA8A012101FA02F2D243E9
:101730001A40FB681A62FB681A6ABB8B1A43FB6883
:101740001A62FB681B6A3A8B012101FA02F2D2434A
:101750001A40FB681A62FB681A6AFB8B1A43FB6823
:101760001A62FB7A9BB25B003B83FB7A01339BB22C
:101770005B00FB827B685B791A46FB7A5B0002FAAE
:1017800003F3FB837B689B791A46FB7A01335B008A
:1017900002FA03F3BB83FB681B6AFA8A012101FA90
:1017A00002F2D2431A40FB681A62FB681A6ABB8BCA
:1017B0001A43FB681A62FB681B6A3A8B012101FA23
:1017C00002F2D2431A40FB681A62FB681A6AFB8B6A
:1017D0001A43FB681A6200BF2437BD465DF8047BDC
:1017E000704700BF80B487B000AFF8600B467A60E6
:1017F000FB72FB7AFB82FB8A062B21D801A252F8EE
:1018000023F000BF2118000841180008291800081B
:10181000411800083118000841180008391800085C
:10182000FB687A685A630CE0FB687A689A6308E0A0
:10183000FB687A68DA6304E0FB687A681A6400E09F
:1018400000BF00BF1C37BD465DF8047B704700BF7A
:1018500080B483B000AF78600B46FB707B685A6938
:10186000FB781A437B685A6100BF0C37BD465DF8B0
:10187000047B704780B483B000AF78600B46FB7088
:10188000FB7803F00103D9B27A68536C61F3CF336C
:10189000536400BF0C37BD465DF8047B7047000001
:1018A00080B58CB000AFF860B96011461A460B469F
:1018B000FB711346BB7107F114031846FFF738FAA2
:1018C000FB682A4A93420BD0FB68294A934207D00F
:1018D000FB68284A934203D0FB68274A934202D10F
:1018E000FB69FB6201E03B6AFB62FA6A13469B00FC
:1018F00013445B001A46BB68B2FBF3F3BB62B96AE0
:101900001E4BA3FB0123DA0813469B0013445B0024
:10191000CA1A042A06D8BB6A184AA2FB0323DB08AA
:10192000BB6206E0BB6A154AA2FB0323DB08013356
:10193000BB62BB6A99B2FA68936861F30F03936064
:10194000FB7903F00103D9B2FA68D36861F30C3371
:10195000D360BB7903F00303D9B2FA68136961F36A
:101960000D33136100BF3037BD4680BD00380140E4
:10197000006001400064014000680140CDCCCCCC47
:1019800080B483B000AF78600B46FB70FB7803F047
:101990000103D9B27A68D36861F34D33D36000BFD5
:1019A0000C37BD465DF8047B704780B483B000AF50
:1019B00078600B46FB70FB7803F00103D9B27A68BC
:1019C000D36861F3C303D36000BF0C37BD465DF835
:1019D000047B704780B483B000AF78600B46FB7027
:1019E000FB7803F00103D9B27A68D36861F382030C
:1019F000D36000BF0C37BD465DF8047B704780B4F0
:101A000085B000AFF860B9601346FB71FB79012B1C
:101A100011D1BB681A0CFB6813441A68BB6803F049
:101A20001F03012101FA03F3B968080CF9680144A6
:101A300013430B6011E0BB681A0CFB6813441A686F
:101A4000BB6803F01F03012101FA03F3DB43B9680C
:101A5000080CF968014413400B6000BF1437BD4601
:101A60005DF8047B704780B483B000AF78600B46AC
:101A70007B807B88C3F308027B685A6000BF0C3709
:101A8000BD465DF8047B704780B483B000AF7860DA
:101A900039607B681A683B681340002B01D0012332
:101AA00000E0002318460C37BD465DF8047B704704
:101AB000002103E00B4B5B58435004310A480B4BA9
:101AC00042189A42F6D30A4A02E0002342F8043B45
:101AD000084B9A42F9D300F011F800F01FFAFEF714
:101AE0005FFD7047142900080000002090000020CE
:101AF0009000002008010020FEE7000080B400AF45
:101B00001E4BD3F888301D4A43F47003C2F8883066
:101B10001B4A136843F00103136000BF184B1B6896
:101B2000C3F34003DBB2012BF8D1154A53686FF3BE
:101B30000103536000BF124B5B68C3F38103DBB248
:101B4000002BF8D10E4B1B680D4A23F0867323F44B
:101B5000803313600A4B00225A60094B00221A633B
:101B6000074B4FF41F029A60044B4FF000629A60DB
:101B700000BFBD465DF8047B704700BF00ED00E08C
:101B80000010024080B588B000AF0023BB61002385
:101B9000FB6100237B6100233B610023FB6000238A
:101BA000BB60FFF7B7F80346FB71FB79022B20D02F
:101BB000022B69DC002B02D0012B16D064E03F4BD6
:101BC0005B6DC3F34023DBB2002B0AD03B4B1B6B96
:101BD000C3F34063DBB2002B03D0394B394A1A60A0
:101BE00056E0374B384A1A6052E0354B364A1A6095
:101BF0004EE0324B5B68C3F30043DBB23B612F4BDB
:101C00005B68C3F38343DBB2FB612C4B5B68C3F3BC
:101C10004173DBB27B617B69002B02D1FB690F2B27
:101C200006D17B691A01FB6913440133FB6102E0B1
:101C3000FB690233FB613B69002B06D1FB69234A38
:101C400002FB03F31E4A136022E01C4B5B68C3F3E4
:101C50004043DBB2002B10D0184B5B6DC3F3013354
:101C6000DBB2BB61BB690233174AB2FBF3F3FA691B
:101C700002FB03F3124A13600AE0FB69124A02FBFB
:101C800003F30F4A136003E00D4B0F4A1A6000BFC5
:101C90000A4B5B68C3F30313DBB2FB600C4AFB68BF
:101CA00013441B78BB60064B1A68BB6822FA03F327
:101CB000034A136000BF2037BD4680BD00100240BC
:101CC00004000020006CDC0200127A0000093D00D4
:101CD000C828000880B500AF00F0B4F8002000F07C
:101CE00035F8012000F032F8022000F02FF8002033
:101CF00000F084F8012000F081F8022000F07EF866
:101D000000F002F800BF80BD80B582B000AF0121B5
:101D10000C48FEF7B2FE3B461846FFF73BFA01239C
:101D2000FB7100233B710023BB7101233B6028231F
:101D30007B713B4619460448FFF790F900BF08370E
:101D4000BD4680BD020018000008014080B584B087
:101D500000AF0346FB71FB79134A52F8233001218F
:101D60001846FEF78AFE07F108031846FFF712FA35
:101D70000123FB7300233B731023BB73FB790B4AD6
:101D800032F81330BB6004237B73FB79084A52F8A6
:101D9000233007F1080211461846FFF75FF900BF2C
:101DA0001037BD4680BD00BF1C000020140000207D
:101DB0000800002080B483B000AF0346FB71FB79BC
:101DC000022B10D8FB790B4A32F81330002B0BD0C2
:101DD000FB79084A32F81310FB79074A52F823308E
:101DE0000A465A6100E000BF0C37BD465DF8047B2F
:101DF000704700BF140000200800002080B483B0AA
:101E000000AF0346FB71FB79022B10D8FB790B4A1C
:101E100032F81330002B0BD0FB79084A32F813103C
:101E2000FB79074A52F823300A461A6100E000BFE6
:101E30000C37BD465DF8047B704700BF14000020DE
:101E40000800002080B500AF0420FFF74BFB094BD2
:101E50001B68094AA2FB03239B0C084A1360074B2B
:101E60001B684FF47A7202FB03F3054A136000BF4C
:101E700080BD00BF0400002083DE1B43EC00002077
:101E8000F000002080B485B000AF0346FB80002343
:101E9000FB6035E0FB88322B0AD91E4B1B681E4ABB
:101EA000322101FB03F35360FB88323BFB8008E0E7
:101EB000FB88184A1268184902FB03F34B600023A1
:101EC000FB80154B00229A60134B1B68124A43F0AB
:101ED00001031360104B1B68FB60FB6803F00103F8
:101EE000002B04D0FB6803F48033002BF2D00A4BA4
:101EF0001B68094A23F001031360074B00229A6014
:101F0000FB88002BC6D100BF00BF1437BD465DF86B
:101F1000047B7047F000002010E000E070B50D4D2C
:101F20000D4C641BA4100026A64209D10B4D0C4C8D
:101F300000F0A8FC641BA4100026A64205D170BDC9
:101F400055F8043B98470136EEE755F8043B9847AF
:101F50000136F2E70C2900080C2900080C290008BA
:101F6000102900080CB430B5174B0C1E1D689DB02D
:101F700008DA8B232B604FF0FF301DB0BDE83040F6
:101F800002B070474FF40273ADF8143014BF04F17F
:101F9000FF332346049307934FF6FF730290069096
:101FA000ADF81630209A21AB02A92846019300F023
:101FB00069F8431CBCBF8B232B60002CDDD0029B37
:101FC00000221A70D9E700BF2C0000202DE9F0474D
:101FD0008E689E4282460C4690461F4638D88A89B3
:101FE00012F4906F32D025680969A5EB0109656983
:101FF00005EB450505EBD57501334B446D109D424E
:1020000038BF1D46530531D5294600F063FB06460F
:1020100050B90C23CAF80030A38943F04003A381D0
:102020004FF0FF30BDE8F08721694A4600F0BEFA64
:10203000A38923F4906343F08003A3812661656143
:102040004E44A5EB09052660A5603E46BE4200D978
:102050003E4620683246414600F0B6FAA3689B1B14
:10206000A3602368334423600020DBE72A4600F0A6
:10207000A5FB06460028E1D12169504600F0BEFAD2
:10208000C7E700002DE9F04F98468B891B069DB0ED
:1020900007460D4614460ED50B6963B9402100F082
:1020A00019FB2860286120B90C233B604FF0FF30FA
:1020B000D1E040236B610023099320238DF8293060
:1020C000CDF80C803023DFF8A8818DF82A304FF04E
:1020D000010923469A4613F8012B0AB1252AF9D1A2
:1020E000BAEB040B0BD05B46224629463846FFF775
:1020F0006DFF013000F0AA80099A5A4409929AF8BB
:102100000030002B00F0A28000234FF0FF32CDE919
:1021100005230AF1010A049307938DF853301A93AB
:102120005446052214F8011B5148FEF759F8049A49
:10213000D8B9D00644BF20238DF85330110744BFCF
:102140002B238DF853309AF800302A2B15D0079A9C
:10215000544600204FF00A0C214611F8013B303B59
:10216000092B4ED9B0B1079214E0A0EB080309FA8D
:1021700003F313430493A246D2E7039B191D1B6884
:102180000391002BBBBF5B4242F00202079307930F
:10219000B8BF049223782E2B0CD163782A2B35D12B
:1021A000039B1A1D1B680392002BB8BF4FF0FF332F
:1021B00002340593DFF8C8A0217803225046FEF7C9
:1021C0000FF840B14023A0EB0A0003FA00F0049B93
:1021D00003430134049314F8011B26488DF828109A
:1021E0000622FDF7FDFF002838D0234B1BBB039BC5
:1021F000073323F0070308330393099B3344099300
:1022000067E70CFB02320C460120A5E700230134EE
:10221000059319464FF00A0C204610F8012B303A6E
:10222000092A03D9002BC5D00591C3E70CFB012176
:1022300004460123F0E703AB00932A460F4B04A9A1
:102240003846AFF30080421C0646D6D1AB895B0608
:102250003FF52CAF09981DB0BDE8F08F03AB00939C
:102260002A46064B04A9384600F07AF8EBE700BF8F
:10227000D8280008E228000800000000CD1F000850
:10228000DE2800082DE9F047164699468A680B6952
:10229000DDF820809342B8BF1346336091F84320A5
:1022A00007460C460AB1013333602368990642BFE2
:1022B000336802333360256815F0060506D104F152
:1022C000190AE36832689B1AAB4226DC94F8432073
:1022D000131E226818BF012392062BD404F1430277
:1022E00049463846C04701301ED02368E568326849
:1022F00003F00603042B08BFAD1AA36822690CBFC4
:1023000025EAE57500259342C4BF9B1AED18002607
:102310001A34B5421AD1002008E00123524649463A
:102320003846C047013003D14FF0FF30BDE8F08799
:102330000135C6E7E1185A1C302081F843002244D9
:1023400094F8451082F843100233C7E70123224670
:1023500049463846C0470130E6D00136D9E700008B
:102360002DE9FF470F7E0C9D782F914680460C4645
:102370009A4601F1430207D8622F0AD8002F00F0D5
:10238000D880582F00F0A38004F1420584F84270F1
:102390003AE0A7F16303152BF6D801A151F823F019
:1023A000F92300080D240008892300088923000868
:1023B00089230008892300080D24000889230008C8
:1023C00089230008892300088923000819250008AB
:1023D0003D240008FB240008892300088923000805
:1023E0003B250008892300083D24000889230008B4
:1023F00089230008032500082B681A1D1B682A6022
:1024000004F1420584F842300123A3E020682968E2
:10241000060601F104030AD50E682B60002E03DACC
:102420002D23764284F843305E480A2319E00E6873
:102430002B6010F0400F18BF36B2EFE72B68206812
:10244000191D2960010601D51E6802E04606FBD56C
:102450001E8854486F2F0CBF08230A23002184F8DC
:1024600043106568A560002DA2BF216821F004011A
:1024700021600EB9002D4DD01546B6FBF3F103FBDC
:102480001167C75D05F8017D3746BB420E46F4D99A
:10249000082B0BD12368DE0708D5236961689942B0
:1024A000DEBF302305F8013C05F1FF35521B2261E8
:1024B000CDF800A04B4603AA21464046FFF7E2FEB6
:1024C00001304CD14FF0FF3004B0BDE8F087354803
:1024D00081F845702968236851F8046B29601D064E
:1024E00014D5DF0744BF43F0200323601EB92368DF
:1024F00023F0200323601023B0E7236843F0200378
:1025000023607823284884F84530E3E7590648BF1C
:10251000B6B2E6E71546BBE72B6826686169181D69
:10252000286035061B6801D5196002E07006FBD5EE
:102530001980002323611546BAE72B681A1D2A600B
:102540001D68626800212846FDF74AFE08B1401B5D
:10255000606063682361002384F84330A8E723693F
:102560002A4649464046D0470130ABD023689B07F6
:1025700013D4E068039B9842B8BF1846A4E7012330
:10258000324649464046D04701309BD00135E3688A
:1025900003995B1AAB42F2DCEBE7002504F1190664
:1025A000F5E700BFE9280008FA2800080A4491422C
:1025B00000F1FF3300D1704710B511F8014B03F85B
:1025C000014F9142F9D110BD884210B501EB0204D0
:1025D00002D98442234607D8431EA14208D011F8ED
:1025E000012B03F8012FF8E7024401468A4200D18B
:1025F00010BD13F8014D02F8014DF7E737B500297A
:1026000044D051F8043C0190002BA1F10404B8BF60
:10261000E41800F013F91E4A0198136833B9636097
:10262000146003B0BDE8304000F00EB9A34208D9F1
:10263000256861198B4201BF19685B6849192160DF
:10264000EDE71A465B680BB1A342FAD91168551839
:10265000A5420BD1246821445418A3421160E0D153
:102660001C685B68536021441160DAE702D90C23CF
:102670000360D6E7256861198B4204BF19685B685F
:10268000636004BF491921605460CAE703B030BDDC
:10269000F400002070B50E4E0C463168054611B9A5
:1026A00000F0BCF830602146284600F0B7F8431C23
:1026B0000AD0C41C24F00304A04207D0211A2846E3
:1026C00000F0ACF8013001D14FF0FF34204670BD6E
:1026D000F80000202DE9F041CD1C25F00305083558
:1026E0000C2D38BF0C25002D074601DBA94205D96A
:1026F0000C233B6000263046BDE8F0812E4E00F0F2
:102700009DF833681C4634BB29463846FFF7C2FFA4
:10271000431C04464DD134682646002E40D1236820
:102720003146384604EB030800F078F880453AD18A
:10273000216803356D1A25F0030508350C2D38BFC7
:102740000C2529463846FFF7A5FF01302BD023681A
:102750002B4423600EE02268521B1ED40B2A16D98C
:102760006119A342256018BF5960636808BF3160D2
:1027700062514B60384604F10B0600F065F826F014
:102780000706231DF21AB6D09B1BA350B3E762685D
:10279000A3420CBF32605A60ECE723466468B2E79C
:1027A00034467668B9E70C233B60384600F04CF8B5
:1027B000A1E72560DEE700BFF40000202DE9F0412D
:1027C000804614460E4621B9BDE8F0411146FFF798
:1027D00081BF2AB9FFF712FF25462846BDE8F081E0
:1027E00000F038F88442074602D8B4EB500F12D8F4
:1027F00021464046FFF76EFF05460028EDD0BC425B
:102800002246314628BF3A46FFF7D0FE31464046C1
:10281000FFF7F4FEE1E73546DFE7000038B5064D87
:102820000023044608462B6000F01EF8431C02D12A
:102830002B6803B1236038BDFC000020014800F084
:1028400011B800BF00010020014800F00CB800BF23
:102850000001002051F8043C181F002BBCBF0B588E
:10286000C018704770477047044A05491368002B29
:1028700008BF0B461844106018467047040100203A
:1028800008010020F8B500BFF8BC08BC9E467047A0
:0C289000F8B500BFF8BC08BC9E467047BD
:10289C002564000000000000000000000102030499
:1028AC0006070809000000000102030400000000F4
:1028BC000102030402040608020C081000000000C8
:1028CC00000000000102030406070809232D302B29
:1028DC002000686C4C006566674546470030313215
:1028EC00333435363738394142434445460030316C
:1028FC0032333435363738396162636465660000CB
:04290C00B501000809
:042910009101000829
:102914000100010000127A0000140140001401407B
:102924000014014000200040008000000500180051
:102934000500180005001800010000003000002008
:102944000000000000000000000000000000000083
:102954000000000000000000000000000000000073
:102964000000000000000000000000000000000063
:102974000000000000000000000000000000000053
:102984000000000000000000000000000000000043
:102994000000000000000000000000000000000033
:0400000508001AB124
:00000001FF
