:020000040800F2
:10000000008001201D1100083F0200084D02000879
:1000100053020008590200085F02000800000000B7
:100020000000000000000000000000006502000861
:10003000730200080000000081020008910200081D
:1000400065110008651100086511000865110008B8
:1000500065110008651100086511000865110008A8
:100060006511000865110008651100086511000898
:100070006511000865110008651100086511000888
:100080006511000865110008651100086511000878
:100090006511000865110008651100086511000868
:1000A0006511000865110008651100086511000858
:1000B0006511000865110008651100086511000848
:1000C0006511000865110008651100086511000838
:1000D0006511000865110008651100086511000828
:1000E0006511000865110008651100086511000818
:1000F0006511000865110008651100086511000808
:1001000065110008651100086511000865110008F7
:1001100065110008651100086511000865110008E7
:1001200065110008651100086511000865110008D7
:1001300065110008651100086511000865110008C7
:1001400000000000000000000000000000000000AF
:1001500065110008651100086511000865110008A7
:100160006511000865110008651100086511000897
:100170006511000865110008651100086511000887
:0401800065110008FD
:1001840010B5054C237833B9044B13B10448AFF3CD
:1001940000800123237010BD28000020000000000F
:1001A400D015000808B5034B1BB103490348AFF34E
:1001B400008008BD000000002C000020D0150008BD
:1001C40080B500AF00F0E4F90121012000F0A2FAAB
:1001D40000BF00F03BFA0346002BFAD001223B217A
:1001E400022000F02DFB002000F0B6FC01210220CB
:1001F40000F090FA00BF192000F000FA0346012B2A
:10020400F9D1002000F0DAFA042000F003FB042006
:1002140000F0EAFA012000F083FC022000F05EFB0B
:1002240000BF00F085FB0346022BFAD1002000F04A
:1002340077FC00F0DBFF00BF80BD80B400AF00BFDF
:10024400BD465DF8047B704780B400AFFEE780B420
:1002540000AFFEE780B400AFFEE780B400AFFEE776
:1002640080B400AF00BFBD465DF8047B704780B426
:1002740000AF00BFBD465DF8047B704780B400AF9B
:1002840000BFBD465DF8047B7047000080B500AF39
:100294002021024800F018FF00BF80BD002C01405F
:1002A40080B584B000AFFFF78BFF01F047F8A94891
:1002B40000F04CFB0121A84800F0EDF90121A7480A
:1002C40000F0E9F90121A64800F0E5F91021A5485C
:1002D40000F00EFD2021A34800F019FDA24B0222DC
:1002E400DA71A14B00221A719F4B10229A719E4B16
:1002F40030221A609C4B04225A719B49994800F0A1
:1003040041FC994B4FF460621A60974B08229A7132
:10031400954B00221A71944B04225A71924B01227C
:10032400DA7191498F4800F02DFC8F4B4FF46042F5
:100334001A608D4B08229A718B4B00221A718A4BDA
:1003440004225A71884B0122DA718749874800F0E8
:1003540019FC854B4FF480521A60834B00229A712A
:10036400814B00221A71804B04225A717E4B012268
:10037400DA717D497D4800F005FC764B1B687C4AA8
:10038400A2FB03239B0B9BB2013B9AB2794B1A80CD
:10039400784B1B88013B1A4640F2771302FB03F3A8
:1003A400754AA2FB03239B099AB2744B1A80714BC2
:1003B4001B88013B1A4613469B0013449A001344BE
:1003C4006F4AA2FB03235B099AB26E4B1A80694BF6
:1003D4001B88002219466C4800F012FD00216A486F
:1003E40000F025FD694800F0ECFC684B07221A7008
:1003F400664B01225A71654B0122DA70634B01226C
:100404005A70624B01229A71604B00221A715F4B41
:1004140000229A705D4A02215B4800F01DFD574B93
:100424001B881A460221584800F018FE574A042136
:10043400554800F011FD534B1B881A4604215248BD
:1004440000F00CFE0121504800F050FE01214E48FE
:1004540000F0A2FC40F2EE23FB810023BB81BB89A8
:10046400DBB21A4610213F4800F060FCFB89414A88
:100474001288013A02FB03F33F4AA2FB03239B09C0
:100484009AB23E4B1A803D4B1B881A4602213E48C5
:1004940000F0E4FDBB89DBB21A461021314800F0BC
:1004A40045FC0023BB601CE0FB89324A1288013AF8
:1004B40002FB03F3304AA2FB03239B099AB22F4B9E
:1004C4001A802E4B1B881A4602212F4800F0C6FDC5
:1004D400FB89013BFB81322001F008F8BB68013342
:1004E400BB60BB6840F2ED229342DDDD00237B60FC
:1004F4001CE0FB891F4A1288013A02FB03F31E4ADF
:10050400A2FB03239B099AB21C4B1A801B4B1B882A
:100514001A4602211C4800F0A1FDFB890133FB812E
:10052400322000F0E3FF7B6801337B607B6840F29C
:10053400ED229342DDDDBB89002B02D10123BB8177
:1005440001E00023BB8140F2EE237B80002000F019
:1005540065FF9FE7540000200B00180002001800FC
:10056400030018000008014044000020000C014072
:100574005917B7D168000020D34D62106C000020D9
:100584001F85EB516E000020002C01404C00002020
:1005940080B400AF184A136843F00103136000BF2E
:1005A400154B1B68C3F34003DBB2012BF8D1124A8D
:1005B40053686FF30103536000BF0F4B5B68C3F3D1
:1005C4008103DBB2002BF8D10B4B1B680A4A23F0E2
:1005D400867323F480331360074B00225A60064B62
:1005E40000221A63044B4FF41F029A6000BFBD46F9
:1005F4005DF8047B704700BF0010024080B485B0F2
:1006040000AF78600023FB737B681B0C03F180430D
:1006140003F504331A687B6803F01F03012101FA10
:1006240003F31A407B6803F01F03012101FA03F36B
:100634009A4202D00023FB7301E00123FB73FB7B8E
:1006440018461437BD465DF8047B704780B582B008
:1006540000AF00237B600023FB7002E07B68013362
:100664007B601120FFF7CAFF0346012B03D07B6890
:10067400B3F5405FF2D31120FFF7C0FF0346012B0F
:1006840002D00023FB7001E00123FB70FB781846C5
:100694000837BD4680BD80B483B000AF78600B4698
:1006A400FB70FB78012B16D17B681B0C03F1804394
:1006B40003F5043319687B6803F01F0301229A4091
:1006C4007B681B0C03F1804303F50433184641EAAD
:1006D4000203036017E07B681B0C03F1804303F5FE
:1006E400043319687B6803F01F03012202FA03F341
:1006F400DA437B681B0C03F1804303F5043318468B
:1007040001EA0203036000BF0C37BD465DF8047BB9
:100714007047000080B483B000AF03460A46FB7103
:100724001346BB71FB79042B3ED801A252F823F087
:10073400490700085D0700087107000885070008DD
:10074400990700081C4ABB7903F00103D9B2136866
:1007540061F30003136028E0174ABB7903F0010337
:10076400D9B2136861F3104313601EE0124ABB79D7
:1007740003F00103D9B2136861F31863136014E042
:100784000D4ABB7903F00103D9B2136A61F3000384
:1007940013620AE0084ABB7903F00103D9B2536A31
:1007A40061F30003536200E000BF00BF0C37BD4695
:1007B4005DF8047B704700BF0010024080B483B032
:1007C40000AF0346FB71074AFB7903F00F03D9B26C
:1007D400536861F30713536000BF0C37BD465DF8DF
:1007E400047B70470010024080B483B000AF03461E
:1007F400FB71074AFB7903F00703D9B2536861F32D
:100804000A23536000BF0C37BD465DF8047B704774
:100814000010024080B483B000AF0346FB71074A66
:10082400FB7903F00703D9B2536861F3CD23536016
:1008340000BF0C37BD465DF8047B704700100240D2
:1008440080B483B000AF0346FB710B46BB71134603
:100854007B71FB79002B0AD11F4A53686FF3104355
:1008640053601D4A136B43F00073136312E01A4A7A
:10087400536843F480335360FB79012B05D1164A46
:1008840053686FF35143536004E0134A536843F4CD
:1008940000335360104ABB7903F00F03D9B2536895
:1008A40061F395435360BB791B110B4A03F00303B7
:1008B400D9B2536861F35E735360074A7B7903F0DE
:1008C4000103D9B2536861F3DF73536000BF0C377F
:1008D400BD465DF8047B70470010024080B483B0CD
:1008E40000AF0346FB71114AFB7903F00303D9B24D
:1008F400536861F30103536000BF00BF00BF00BF32
:1009040000BF00BF00BF00BF00BF00BF00BF00BFEB
:1009140000BF00BF00BF00BF00BF00BF00BF00BFDB
:1009240000BF0C37BD465DF8047B704700100240E1
:1009340080B400AF044B5B68C3F38103DBB2184699
:10094400BD465DF8047B70470010024080B58AB054
:1009540000AF786000233B6200237B620023FB61CD
:100964000023BB6100237B6100233B61FFF7E0FFB1
:100974000346FB73FB7B022B20D0022B69DC002B8C
:1009840002D0012B16D064E05D4B5B6DC3F34023B2
:10099400DBB2002B0AD05A4B1B6BC3F34063DBB2B0
:1009A400002B03D07B68574A1A6056E07B68564A8E
:1009B4001A6052E07B68544A1A604EE0504B5B6800
:1009C400C3F30043DBB2BB614D4B5B68C3F38343AA
:1009D400DBB27B624A4B5B68C3F34173DBB2FB61FE
:1009E400FB69002B02D17B6A0F2B06D1FB691A012C
:1009F4007B6A134401337B6202E07B6A02337B62CD
:100A0400BB69002B06D17B6A404A03FB02F27B6878
:100A14001A6022E03A4B5B68C3F34043DBB2002B1D
:100A240010D0374B5B6DC3F30133DBB23B623B6ADF
:100A34000233354AB2FBF3F37A6A03FB02F27B68B2
:100A44001A600AE07B6A304A03FB02F27B681A6090
:100A540003E07B682C4A1A6000BF294B5B68C3F330
:100A64000313DBB27B612A4A7B6913441B783B6125
:100A74007B681A683B69DA407B685A60204B5B6884
:100A8400C3F30223DBB27B61224A7B6913441B78E4
:100A94003B617B685A683B69DA407B68DA60184BD3
:100AA4005B68C3F3C223DBB27B611B4A7B691344DB
:100AB4001B783B617B685A683B69DA407B689A60C3
:100AC4000F4B5B68C3F30073DBB27B617B699B00F4
:100AD4000B4A5268C2F38132D2B213437B610F4A8C
:100AE4007B6913441B783B617B689A683B69B2FB62
:100AF400F3F27B681A6100BF2837BD4680BD00BF92
:100B040000100240006CDC0200127A0000093D0073
:100B1400E8150008F8150008001600080816000873
:100B240080B483B000AF0346FB71FB79012B05D180
:100B3400084A536D43F03003536504E0054A536D8E
:100B44006FF30513536500BF0C37BD465DF8047B96
:100B5400704700BF0010024080B483B000AF03466A
:100B6400FB71074AFB7903F00303D9B2536D61F3B8
:100B74000D33536500BF0C37BD465DF8047B7047E9
:100B84000010024080B485B000AF786039603B68E3
:100B94001B683B813B689B79032B02D100237B813B
:100BA40030E03B689B79002B15D13B685B799BB2A5
:100BB40003F00F037B813B685B79182B03D13A89DF
:100BC4007B681A611EE03B685B79282B1AD13A894D
:100BD4007B685A6116E03B689B791BB203F00803FB
:100BE4001AB23B681B791BB203F004031BB2134314
:100BF4001AB23B68DB791BB203F003031BB2134345
:100C04001BB27B813B89DBB2002B25D00023FB6028
:100C14001FE03A89FB6842FA03F303F00103002B57
:100C240014D07B681B68FA6892000F2101FA02F263
:100C3400D2431A407B681A607B681B687989FA681A
:100C4400920001FA02F21A437B681A60FB680133CE
:100C5400FB60FB68072BDCD93B89FF2B28D93B8938
:100C64001B0A3B810023FB601FE03A89FB6842FAC0
:100C740003F303F00103002B14D07B685B68FA686C
:100C840092000F2101FA02F2D2431A407B685A60A3
:100C94007B685B687989FA68920001FA02F21A4368
:100CA4007B685A60FB680133FB60FB68072BDCD967
:100CB40000BF1437BD465DF8047B704780B483B031
:100CC40000AF78607B684FF6FF721A607B68002281
:100CD4009A717B6800221A717B6804225A717B68BE
:100CE4000122DA7100BF0C37BD465DF8047B704702
:100CF40080B483B000AF78600B467B807A887B68D1
:100D04001A6100BF0C37BD465DF8047B704780B4A0
:100D140083B000AF78600B467B807A887B685A6129
:100D240000BF0C37BD465DF8047B704780B483B0C8
:100D340000AF78600B467B8013467B707B78002B7A
:100D440003D07A887B681A6102E07A887B685A61EA
:100D540000BF0C37BD465DF8047B704780B483B098
:100D640000AF0346FB71FB79042B06D1094B1B68CA
:100D7400084A43F00403136005E0064B1B68054A68
:100D840023F00403136000BF0C37BD465DF8047BF9
:100D9400704700BF10E000E080B483B000AF78601B
:100DA4000B46FB70FB7803F00103D9B27A68136831
:100DB40061F30003136000BF0C37BD465DF8047B8C
:100DC400704780B483B000AF78607B6800221A70EB
:100DD4007B6800225A707B6800229A707B6800222C
:100DE400DA707B6800221A717B6800225A717B6872
:100DF40000229A7100BF0C37BD465DF8047B704732
:100E040080B485B000AFF860B9607A60FB68BA68F6
:100E1400DA62FB687A689A62FA68536943F00103FC
:100E2400536100BF1437BD465DF8047B704780B43E
:100E340083B000AF78600B46FB70FB7803F00703C8
:100E4400D9B27A68136861F30613136000BF0C37D4
:100E5400BD465DF8047B704780B489B000AFF8608C
:100E64000B467A60FB720023FB830023BB830023C1
:100E74007B83FB7A9BB208333B83FB7A9BB20933B7
:100E8400FB827B685B781A463B8B02FA03F3FB8395
:100E94007B689B781A46FB8A02FA03F3BB83FB68E0
:100EA4005B68FA8A012101FA02F2D2431A40FB6814
:100EB4005A60FB685A68BB8B1A43FB685A60FB682C
:100EC4005B683A8B012101FA02F2D2431A40FB68B3
:100ED4005A60FB685A68FB8B1A43FB685A60FB7ABA
:100EE4007B837B8B062B3DD801A252F823F000BFF5
:100EF400110F0008690F0008270F0008690F000888
:100F04003D0F0008690F0008530F00087B681B7829
:100F140003F00703D9B2FA68936961F30613936186
:100F240021E07B681B7803F00703D9B2FA68936960
:100F340061F30E33936116E07B681B7803F00703BB
:100F4400D9B2FA68D36961F30613D3610BE07B6805
:100F54001B7803F00703D9B2FA68D36961F30E333F
:100F6400D36100E000BFFB7A9BB25B009BB201330C
:100F74003B83FB7A9BB25B009BB20333FB827B68AF
:100F8400DB781A463B8B02FA03F3FB837B681B79FD
:100F94001A46FB8A02FA03F3BB83FB681B6AFA8ACC
:100FA400012101FA02F2D2431A40FB681A62FB687B
:100FB4001A6ABB8B1A43FB681A62FB681B6A3A8B7A
:100FC400012101FA02F2D2431A40FB681A62FB685B
:100FD4001A6AFB8B1A43FB681A62FB7A9BB25B00AA
:100FE4003B83FB7A01339BB25B00FB827B685B79BA
:100FF4001A46FB7A5B0002FA03F3FB837B689B7956
:101004001A46FB7A01335B0002FA03F3BB83FB68E5
:101014001B6AFA8A012101FA02F2D2431A40FB68E0
:101024001A62FB681A6ABB8B1A43FB681A62FB6874
:101034001B6A3A8B012101FA02F2D2431A40FB687F
:101044001A62FB681A6AFB8B1A43FB681A6200BFB8
:101054002437BD465DF8047B704700BF80B487B079
:1010640000AFF8600B467A60FB72FB7AFB82FB8A66
:10107400062B21D801A252F823F000BF9D100008CE
:10108400BD100008A5100008BD100008AD10000830
:10109400BD100008B5100008FB687A685A630CE0BC
:1010A400FB687A689A6308E0FB687A68DA6304E0AC
:1010B400FB687A681A6400E000BF00BF1C37BD46B5
:1010C4005DF8047B704700BF80B483B000AF7860E4
:1010D4000B46FB707B685A69FB781A437B685A613C
:1010E40000BF0C37BD465DF8047B704780B483B005
:1010F40000AF78600B46FB70FB7803F00103D9B2B4
:101104007A68536C61F3CF33536400BF0C37BD4628
:101114005DF8047B70470000002103E00B4B5B5833
:10112400435004310A480B4B42189A42F6D30A4AF8
:1011340002E0002342F8043B084B9A42F9D300F042
:1011440011F800F01FFAFFF7ABF8704728160008F3
:101154000000002028000020280000207C0000203F
:10116400FEE7000080B400AF1E4BD3F888301D4A60
:1011740043F47003C2F888301B4A136843F0010338
:10118400136000BF184B1B68C3F34003DBB2012B91
:10119400F8D1154A53686FF30103536000BF124B33
:1011A4005B68C3F38103DBB2002BF8D10E4B1B68E1
:1011B4000D4A23F0867323F4803313600A4B002214
:1011C4005A60094B00221A63074B4FF41F029A60BE
:1011D400044B4FF000629A6000BFBD465DF8047B8B
:1011E400704700BF00ED00E00010024080B588B0F9
:1011F40000AF0023BB610023FB6100237B6100235C
:101204003B610023FB600023BB60FFF791FB0346B7
:10121400FB71FB79022B20D0022B69DC002B02D05E
:10122400012B16D064E03F4B5B6DC3F34023DBB26C
:10123400002B0AD03B4B1B6BC3F34063DBB2002B88
:1012440003D0394B394A1A6056E0374B384A1A6092
:1012540052E0354B364A1A604EE0324B5B68C3F3BA
:101264000043DBB23B612F4B5B68C3F38343DBB2C8
:10127400FB612C4B5B68C3F34173DBB27B617B691D
:10128400002B02D1FB690F2B06D17B691A01FB6984
:1012940013440133FB6102E0FB690233FB613B69E8
:1012A400002B06D1FB69234A02FB03F31E4A136099
:1012B40022E01C4B5B68C3F34043DBB2002B10D02D
:1012C400184B5B6DC3F30133DBB2BB61BB69023303
:1012D400174AB2FBF3F3FA6902FB03F3124A1360F1
:1012E4000AE0FB69124A02FB03F30F4A136003E0AE
:1012F4000D4B0F4A1A6000BF0A4B5B68C3F303131C
:10130400DBB2FB600C4AFB6813441B78BB60064BE2
:101314001A68BB6822FA03F3034A136000BF20373C
:10132400BD4680BD0010024000000020006CDC02BD
:1013340000127A0000093D001016000880B500AFC5
:1013440000F0B4F8002000F035F8012000F032F885
:10135400022000F02FF8002000F084F8012000F0B3
:1013640081F8022000F07EF800F002F800BF80BD92
:1013740080B582B000AF01210C48FFF78CF93B46E1
:101384001846FFF79BFC0123FB7100233B710023EC
:10139400BB7101233B6028237B713B4619460448FB
:1013A400FFF7F0FB00BF0837BD4680BD0200180000
:1013B4000008014080B584B000AF0346FB71FB799F
:1013C400134A52F8233001211846FFF764F907F154
:1013D40008031846FFF772FC0123FB7300233B73D9
:1013E4001023BB73FB790B4A32F81330BB60042320
:1013F4007B73FB79084A52F8233007F1080211463F
:101404001846FFF7BFFB00BF1037BD4680BD00BFC5
:1014140018000020100000200400002080B483B0D5
:1014240000AF0346FB71FB79022B10D8FB790B4A02
:1014340032F81330002B0BD0FB79084A32F8131022
:10144400FB79074A52F823300A465A6100E000BF8C
:101454000C37BD465DF8047B704700BF10000020C8
:101464000400002080B483B000AF0346FB71FB7915
:10147400022B10D8FB790B4A32F81330002B0BD017
:10148400FB79084A32F81310FB79074A52F82330E3
:101494000A461A6100E000BF0C37BD465DF8047BC4
:1014A400704700BF100000200400002080B500AF8A
:1014B4000420FFF753FC094B1B68094AA2FB0323D2
:1014C4009B0C084A1360074B1B684FF47A7202FBAB
:1014D40003F3054A136000BF80BD00BF0000002075
:1014E40083DE1B43740000207800002080B485B0A4
:1014F40000AF0346FB800023FB6035E0FB88322B02
:101504000AD91E4B1B681E4A322101FB03F35360A8
:10151400FB88323BFB8008E0FB88184A12681849B4
:1015240002FB03F34B600023FB80154B00229A60FF
:10153400134B1B68124A43F001031360104B1B68E2
:10154400FB60FB6803F00103002B04D0FB6803F489
:101554008033002BF2D00A4B1B68094A23F00103A5
:101564001360074B00229A60FB88002BC6D100BF92
:1015740000BF1437BD465DF8047B70477800002037
:1015840010E000E070B50D4D0D4C641BA410002656
:10159400A64209D10B4D0C4C00F018F8641BA410A2
:1015A4000026A64205D170BD55F8043B9847013684
:1015B400EEE755F8043B98470136F2E72016000899
:1015C400201600082016000824160008F8B500BFED
:1015D400F8BC08BC9E467047F8B500BFF8BC08BC10
:0415E4009E46704768
:1015E80000000000000000000102030406070809CB
:1015F80000000000010203040000000001020304CF
:1016080002040608020C0810000000000000000098
:081618000102030406070809A2
:04162000A901000814
:041624008501000834
:1016280000127A0000140140001401400014014027
:101638000020004000800000050018000500180088
:0816480005001800010000007C
:040000050800111DC1
:00000001FF
